:020000040000FA
:100000004356424C30310A000000000056AFFECA91
:1000100000000000000000000000000000000000E0
:1000200000000000000000000000000000000000D0
:1000300000000000000000000000000000000000C0
:1000400000000000000000000000000000000000B0
:1000500000000000000000000000000000000000A0
:100060000000000000000000000000000000000090
:100070000000000000000000000000000000000080
:100080000000000000000000000000000000000070
:10009000FFFFFFFFFFFFFFFFFFFFFFFFFFFFFFFF70
:1000A000FFFFFFFFFFFFFFFFFFFFFFFFFFFFFFFF60
:1000B000FFFFFFFF0000000000000000F80200004A
:1000C0000000FECA00000000000220050000000041
:1000D00000000000BCF4FECA007200000000000036
:1000E00000820000000000000C00000E010000A0D3
:1000F0000C00000E020000A0A0FFFFFFFFFFFFFFAB
:1001000000000000000000000000000000000000EF
:1001100000000000000000000000000000000000DF
:1001200000000000000000000000000000000000CF
:1001300000000000000000000000000000000000BF
:101000006F0000020000000000000000000000006F
:1010100000000000000000000000000000000000D0
:101020001B0E9005131E9E01B70E00039B8E4E08EB
:1010300023A0CE01930000001301000093010000E3
:10104000130200009302000013030000930300004A
:101050001304000093040000130500009305000032
:10106000130600009306000013070000930700001A
:101070001308000093080000130900009309000002
:10108000130A0000930A0000130B0000930B0000EA
:10109000130C0000930C0000130D0000930D0000D2
:1010A000130E0000930E0000130F0000930F0000BA
:1010B000731000349702000093820209739052303B
:1010C000B78101009B81710C9391F1007390017CB9
:1010D000B70120709B81C1FF1302100023A04100C3
:1010E0009301300373B0217C9301100173A0217C24
:1010F0009301100073A0117C9301300373B0217C25
:101100009301200173A0217C9301200073A0117C26
:10111000179100001301010B979600009386860E2D
:1011200017F70000130707CE3307D74023B0060098
:1011300093868600130787FFE31A07FEEF30B07827
:101140006F0040006F0000476FF0DFFF0B000001F1
:101150000B00A0018280AA879385F503BE951375C5
:1011600005FC93F505FC6365B5000B0090018280DA
:101170000B00B50213050504FDB7E547BB87A702C1
:10118000370700032324F7088280732710C0E54740
:10119000BB86A7021347F7FFB7070003012723A465
:1011A000D708F32710C093C7F7FFBB07F740E3EA60
:1011B000D7FE82809307803E3B85A702F9B719E5E9
:1011C000732510C01345F5FF01258280F32710C059
:1011D00093C7F7FF1D9D99679B87871A3B55F502BB
:1011E000828019E5732510C01345F5FF0125828023
:1011F000F32710C093C7F7FF1D9DE5473B55F50248
:10120000E1679B87076A3B75F5028280732510C0F2
:10121000E5473355F502012582800111B757424950
:1012200022E89387F73417F40000130424AA26E475
:101230001CE0B714000185474AE0139674002A8920
:101240001CEC17650000130565D3FD5706EC1CF474
:101250000CE8EF006010930500032285EFF0BFEF6C
:10126000EFF0DFFA9307803E1B05753E3B55F50214
:101270009777000083B787C622864264E260939521
:101280007400A2642397A700CA870269014505611B
:1012900082878280370714045C4B93F70702EDDFE7
:1012A00008C38280411122E006E4A9472A8463151D
:1012B000F5003545EFF01FFE22850264A260410172
:1012C000D1BFB706140413070006DC4A93F70706DC
:1012D000E39DE7FE828039714AF00BB7057C06FC7E
:1012E00022F826F432890148A5453376E5021B042D
:1012F00018009377F60F63E0C5049B87070393F705
:10130000F70F30008B570601B357E50205086372EB
:10131000E502BB84864063439002FD547D149B0725
:10132000040063949702E2704274A274027921610E
:1013300082803E855DBF9B877705D1B7CA8513053F
:101340000003EF00C07BFD34F9B73C000BC587807C
:10135000CA85EF00C07AD9B73571A2E8A6E486EC59
:10136000CAE04EFC52F856F45AF0AEF4B2F8B6FCAD
:101370003AE13EE542E946ED2A84894415C1034736
:1013800005008547631EF7008347150011479B87BB
:1013900007FD93F6F70F6365D700BE84130425009D
:1013A000BC103EEC254AD94A976900009389C9BF11
:1013B0000345040019E9E6604664A6640669E2791B
:1013C000427AA27A027B0D61828093075002050463
:1013D000631BF51081478146130600030347040091
:1013E000630CC7001B07C7F91377F70FE3E5EAFCA7
:1013F0000BC7E9444E970287034714001B0707FDFC
:101400009375F70F6363BA00BA860904C1BF6267B8
:1014100085451306870032EC63D5F50203390700D2
:10142000635B0900A6851305D00236E4EF00206D4A
:10143000A266330920412686A9454A85EFF0BFE917
:1014400031A8E9FF03290700E1BFE26703B90700FC
:10145000138787003AEC0345090019E1050489BFA9
:10146000A6850509EF00A069FDB7E26717690000CE
:10147000130949B303BB0700138787003AEC631CC9
:101480000B002686C1455A8555BFA68536E4EF0078
:101490000067A26605090345090065F9DDB76267C3
:1014A00085451306870032EC63D6F500086326866F
:1014B000C14569B7E5FF03650700D5BF0504894746
:1014C00031BF8527050419BF62678545130687006C
:1014D00032EC63D6F50008632686A94585B7E5FF9B
:1014E00003650700D5BFA685EF006061D1B57971AE
:1014F00022F037E400BE06F49307340026EC4AE8F5
:101500004EE43709000E2E862328F900AA851765B8
:101510000000130525AFEFF03FE4EFF09FDAB7349A
:1015200000BE93871400B7090003056523A2F908DC
:1015300013058538EFF01FC8B7670205054723A0DC
:10154000E70E23A4E70C890423A29908130540069B
:10155000EFF0BFC3B75702052D6723A6070A13078D
:1015600087B1D8C3370740001307070498C7B707E8
:10157000010313076006D8C313070002D8CF13076F
:101580006007D8C7454798C38347390093F70704D6
:101590008DC3110423288900B76602050D4783A770
:1015A000460DE39EE7FEB707080037570205A1077F
:1015B0001CC701A04111B7E700BE06E43707000EC3
:1015C00089071CCB9B8700008685176500001305E3
:1015D000E5A45CCBEFF05FD8FD551765000013055F
:1015E000E5A4EFF0DFF0411106E4970080C8E78042
:1015F00060A3B5670125138707EA630AE5009387AF
:1016000037EA6300F502B707000EC8C301A8B75751
:10161000474D3707000E938727E35CC3A260410163
:101620008280B757474D3707000E938717E3F5B70A
:10163000B727000323A8070223AA0702828097671F
:10164000000083B7A7A53971176500001305859EB3
:101650003EE09767000083B7E7A426F406FC3EE46B
:101660009767000083B787A522F84AF03EE897679E
:10167000000083B727A43EECEFF01FCEB72700038E
:101680007D57845B9306F00398DBD4DBB78748056E
:1016900037370003938717102324F780B7370003E9
:1016A0002320D784014613074785130801011385BA
:1016B000C780C1458B46264014C38326C7FF410718
:1016C000BD9A93E616002326D7FE8B4606418B561D
:1016D000A6401106E310B6FE138607801842BD76B9
:1016E0009386E6EE758F18C23787440013860790FD
:1016F0001307171018C637240003B7068001416886
:1017000014D093059830930604108CDAB7050200C4
:10171000938595208CDE58C6370603001303960088
:1017200023246404130796303705040078C837096A
:1017300008001307950078D0930899001307040850
:1017400023241701B7081200A508232C1701B70896
:101750000F00A50823A01603250823240703130858
:101760009610232207071305953068D73705060022
:10177000232467041305952028CB28CF8CCA130691
:101780009620F0C237060500250610DFD0D69387D5
:10179000078898531309091033F924016D9B98D3D6
:1017A000D8571305800C659BD8D7EFF01F9E2328D0
:1017B0002403E270232A04024274A2740279216194
:1017C0008280411106E4EFF09FE7A26017650000F8
:1017D00013054587410149B68280375702055C47AA
:1017E0001C47B70600F49386F6BFF58FB706000CCA
:1017F000D58F1CC78546B767020523A6D74823A601
:1018000007481C47B716000C93860680D58F1CC767
:10181000176500001305058481B6411122E0376485
:1018200002058325840F176500001305258406E44F
:10183000EFF09FB28325C40F176500001305858460
:10184000EFF09FB185472320F40C376702058546EA
:101850008327070CE39ED7FE2326D70C37670205A4
:1018600085468327C70CE39ED7FE2324D70C376712
:10187000020585468327870CE39ED7FE2320D70EDB
:10188000B7660205054783A7060EE39EE7FE3757B6
:101890000205130607085C56A260026493E717006E
:1018A0005CD6AD67938787B15CC31C47457613064A
:1018B0000684D18F1CC783A7060DED9B23A8F60CC9
:1018C0004101828005670507B70605039C4A7D37FD
:1018D00009EF4111175500001305C57E06E4EFF02E
:1018E000BFA7A2607D5541018280858BE5F301454C
:1018F0008280411106E4EFF0FFFC01E9B707050320
:10190000414798C3A260410182807D55E5BF1B1508
:1019100015001375E5079B95750001114D8D22E8A3
:1019200006EC26E44AE00B34053CEFF0BFF901C9B0
:101930007D55E2604264A2640269056182808B3752
:10194000042C370405035CC05149232024018BB4C7
:10195000073CEFF03FF769FD93E4140044C02320F7
:101960002401C1BF411106E4EFF0DFF5AA877D55E0
:1019700081EFB70705031307000398C3EFF09FF447
:101980003335A0000B250500A26041018280411182
:1019900006E4EFF03FF301E9B7070503614798C399
:1019A000A260410182807D55E5BF230005002A87A2
:1019B0001753000013038372654EB3F7C5028B47BC
:1019C000F38091CE1B88F7F91378F80F9308000283
:1019D00063730E018148BB87174193F7F70F8B574D
:1019E0001708B3D7C50263F4C502AA87BA8663E2B3
:1019F000D7029306F5FF81476368D700B307A74076
:101A000085078583B307F0403305F7008280BE85E4
:101A10006DB783C5060003C607008BD517180BD614
:101A2000F619F1B713F8F50FAA8713F7770019C75E
:101A300011E282800BD817187D16C5BF05CA9756CC
:101A4000000083B6266C93F5F50F9D48B385D5024B
:101A500081463303D64063EC680093563600E15567
:101A60000B96B6208B97D7066317E60082808BD53E
:101A7000D760A106F9BF0BD8E7000507F5B7B34754
:101A8000B5009D8BA9E7AA8713F7770009CB11E270
:101A900082800BC715987D160BD71718F5B79D4692
:101AA00019E682800BC8E5600BD8E7602107330890
:101AB000E640E3E906FF13573600E1560B16D72040
:101AC0000E07BA97BA9501476315E6008280AA8788
:101AD000DDBF8BC6E5808BD6E7000507F5B733077A
:101AE000B540AA876363C70059BFB29532956313A7
:101AF000F50082800BC7F5890B57F509CDBFB707F5
:101B0000000E9447411122E006E409672A8463E449
:101B1000E60023A40700B707000E98479B061700AE
:101B200094C7B706000C0BD4E6100947634DB70005
:101B300083C70700918B81EB1375F40FEFF08FF6DD
:101B4000635305007D54A2602285026441018280B6
:101B500001478B47E5808BC6E5806385D7003B85D1
:101B6000D74082800507F5F701458280AA8703C721
:101B7000070001E73385A74082808507CDBF0111AB
:101B80003707C0008B37551C22E826E44AE01B5477
:101B900055011B0707400B3905518B3445100B3598
:101BA000853C399D1B15250006EC0B35057C1CC1B9
:101BB0002945EFF08FDD9377440095EB0D671D8885
:101BC0001B070702399C1B14C4001B0404050B34BB
:101BD000047C1C40BBD72701858B3E8599C013C56B
:101BE0001700E2604264A2640269056182803714D2
:101BF000020513040405E1BFB707050383A74710D7
:101C00003E85918B91C3A5BFB7070003C8430B3531
:101C100085208280411106E4EFF04FDFA2601B05B2
:101C2000753E9307803E3B55F5024101828041118C
:101C3000B707050322E006E403A48719EFF07FCB82
:101C400011C9175500001305654C0264A2604101DB
:101C50006FF08FF09377840091E78D451305600254
:101C6000EFF0FFCA418811E4914513056002EFF0DF
:101C70001FCAEFF03FCF11C5175500001305854A65
:101C8000E9B7B707050383A787190D478BB7371047
:101C90006388E700175500001305C54AEFF0CFEB46
:101CA000EFF0FFCE11C5175500001305A54B71BF0E
:101CB000A26002644101828079713287012622F09C
:101CC00026EC3AE006F4AA842EE4EF30202585477E
:101CD0000B47D1F879546313F50001442686A28599
:101CE0001755000013058549EFF00FE7A270228514
:101CF0000274E2644561828001112AE417860000C3
:101D0000130646508565175500001305254906EC56
:101D100022E8EFF06FE497F07FC8E780A030B56766
:101D20000125938737EAA266176700001307871A11
:101D30006314F5041C630566178500001305854CC4
:101D400083A5070EEFF05FF76344050217840000D8
:101D50001304444B9757000083B747531860630A36
:101D6000F702175500001305E544EFF0EFDE7D554F
:101D7000E2604264056182801C630566178500008D
:101D80001305454883A5070E97F07FC8E780802D8F
:101D900065BF8565D115178500001305654797F068
:101DA0007FC8E780203010449B0505006309B6001A
:101DB0001755000013058541EFF00FDA4DBF175599
:101DC00000001305A542EFF02FD9014555B70111C9
:101DD00022E8178400001304E442104C4C482AE423
:101DE000175500001305054106ECEFF0EFD6184C2F
:101DF0009167A2666363F7001CCC36E497F07FC856
:101E0000E7804022B5670125938737EAA26603661B
:101E100084014C486313F504179500001305853EB3
:101E2000EFF09FE9634705020C4C1795000013057E
:101E3000653D97F07FC8E780E02610489B050500C8
:101E40006306B602175500001305453CEFF0CFD0EE
:101E50007D55E2604264056182801795000013059C
:101E6000653A97F07FC8E780E01F6DBF1755000007
:101E70001305453CEFF04FCE0145E1BF797126ECEB
:101E8000CD744AE84EE452E006F422F09B84041636
:101E90009549054A175900001309493A014497F03A
:101EA0007FC8E7802022635EA4002285EFF0DFE494
:101EB000635405000524E5B72285EFF05FF1E34B9D
:101EC00005FE97F07FC8E780E01F635FA402EFF094
:101ED0007FD417640000130464001C602391A700E2
:101EE0001795000013050532EF30E028EFF09FD280
:101EF0001C60A27002742392A700E2644269A26986
:101F0000026A01454561828097F07FC8E7808011B1
:101F1000259DA28563EFA9003315AA0013759502CC
:101F200009C94A85EFF04FC397F07FC8E780801555
:101F3000B5B7175500001305E532EFF0EFC1EFF02C
:101F40006FE7011122E8176400001304242626E439
:101F5000AA86AE84176600000336C6249765000083
:101F600083A5C523086006EC97F07FC8E780800F43
:101F7000634C0500EFF0CFEB1C6001459CE0E26094
:101F80004264A264056182807D55D5BF011106ECD3
:101F900002E4EFF01F832C000145EFF09FFAFD579C
:101FA000634F0500EFF08F9AEFF03F831765000055
:101FB0000335C51FA26501C9EFF02FA68147E26076
:101FC0003E85056182802E85EFF0AFACC5BF08412C
:101FD000828088C18280828017E70000130737E281
:101FE0008347070089EB176500000335A5F98527AE
:101FF0002300F700828085466397D70017650000AD
:102000000335C5F8EDB7176500000335A5F8C5B76A
:10201000828017E50000033565CE8C6941111D46AD
:10202000110506E4EFF0BFA5A2604101828097553B
:10203000000093852566175500001305A5256FF050
:10204000AFB197E70000A38907DA854717E70000DB
:10205000A307F7DA975500009385C56297E700005C
:10206000A38D07D8175500001305C5226FF0CFAE1A
:1020700041119755000093856560175500001305C1
:10208000E52206E4EFF04FADA2609767000023B7AA
:1020900007FC41018280411122E0975500009385A1
:1020A000655D2A84175500001305452006E4EFF00E
:1020B000AFAA97670000938767FA986301CF175517
:1020C00000001305A51FEFF02FA9A26002640145CF
:1020D0004101828080E3D5BF011122E82A842E8548
:1020E0002EE406ECEFF09FA806051B072500A2874B
:1020F0000BD727180D47A300E40013074006A2657D
:102100006374A7001305400601479316170063E6A2
:10211000A600E2604264056182808BC6E580050707
:102120008BD62718A38F07FECDB7985D930760FC69
:102130006306F7229C69797152E006F422F026ECDE
:102140004AE84EE403C4370003C7470083C41700BE
:10215000021462073A9403C7770003C627009B94D2
:1021600084003A9403C75700259E17EA0000130A1B
:10217000EABA42073A9403C7670083350A00B2847B
:1021800022073A9405EE1DE897E7000083B787B869
:1021900017E70000032787C417E50000033505BAD9
:1021A000027498CF1871A270E2644269A269026A4F
:1021B00018738CEBCCCFBE854561028703C907003D
:1021C0000145EF20106D8947AA896307F90E63E383
:1021D00027036318090C83350A0017E5000003354F
:1021E00065B61B8684FF0B36067CA1052295EFF0B1
:1021F0001F8921A08D476301F90E176400001304A5
:10220000E4F2086041468145EFF0DF8197E6000087
:1022100083A646BC1C6017E600001306E6BD8B963D
:1022200006900347060094C71B95890097E60000B7
:1022300083A686BA9BD989003365350197E40000EF
:102240009384C4AC2390A7002391A7008860A38344
:10225000E7008B960690052723832701239207002A
:10226000D4C72300E600814513060004EFF08FFB7E
:102270008C60C14717E500000335C5AB9CCD1C60E1
:102280000274A2709CE9DCCD970700009387C71504
:102290009CF51C71E2644269A269026A9C73456103
:1022A0008287B707000E9107E319F4F483350A001B
:1022B00011462285A10525BF17550000130585008D
:1022C000EFF08F8997E70000238807B2854717E76B
:1022D00000002304F7B215B783350A001B8684FF7C
:1022E0000145A105EF20F05A2A8417550000130577
:1022F000E5FEEFF06F86B167012493873728631AF4
:10230000F40297E70000238907AE97E70000938760
:10231000E7AE05472380E7003707000E23220700BA
:1023200083C50700175500001305C5FBEFF0CF82EA
:10233000E9B597E70000238307ACB707000E23A297
:10234000070017550000130565FBEFF0EF801755E8
:1023500000001305A5FCEFF02F8045B58280797150
:1023600006F422F026EC4AE84EE489476302F502BF
:102370008D47FD54176400001304C4C7630EF500B5
:10238000A27002744269A2692685E2644561828076
:1023900017640000130404C12E898B45847881449E
:1023A000E5D183C90500330599004E86EFF02FED86
:1023B0008B458478BB849900E5B7985DED5763122F
:1023C000F702411117550000130545F606E4EFE04A
:1023D000BFF8A260854717E70000A301F7A24101FB
:1023E00082808280985D930760FC6304F70441114A
:1023F00022E017E40000130464920860814521463E
:1024000006E4EFF02FE297E5000083B5A59097E78B
:10241000000083A7A79C17E5000003352592A26062
:102420009CCD1C6002649CE9DCCD1C719C73410155
:10243000828782805971CAE8D2E017E90000130947
:10244000698E17EA0000130A6A8EA6EC03360A00AA
:10245000AA8403350900CEE486F4A2F056FC5AF8AB
:102460005EF462F066EC03A8040203C7150083C69D
:10247000050083D9650083D7250097050000938563
:1024800005F40CF608EA48CE89456307B8028D4585
:1024900005446310B806976A0000938A2AAC176B4C
:1024A0000000130BABAA93F5060685C19306000244
:1024B0006382D536014435A8976A0000938A0AA83A
:1024C000176B0000130B8BA6F9BF2146630BC732B5
:1024D00025466308C72419467D54631CC700BD8A7E
:1024E00005476396E602175500001305A5E5EFE0E2
:1024F000BFE6A67022850674E6644669A669066A88
:10250000E27A427BA27B027CE26C65618280DDF232
:102510001BD787007D370B36073CB94663E6C60AF2
:1025200097560000938646EF0BC7C644369702873E
:1025300017640000130404C68355040089CD1755A1
:102540000000130525E3EFE03FE183570400176720
:102550000000231DF7AE03350900494697650000CA
:10256000938545AEEFF0AFD749440549886CB32752
:1025700034010B94F9401C7183350A009C7380CDA3
:102580008297E30909F2B71700C0370700039507E0
:102590002322F70805B793F7F70F09476388E70287
:1025A0006361F70297D500009385457F89E79765BA
:1025B0000000938525B603C4050022860335090073
:1025C0000DA20D476389E7007D5425B797D500001C
:1025D0009385C577CDB7EFF02FE29755000093852F
:1025E000E5DF55E517EB0000130B6B81834A0B0009
:1025F00063910A084146814517D500001305057708
:10260000B70B0503EFF00FC20144938B4B10975C9F
:102610000000938C2CD7114C0BC68B449B050400F7
:1026200066850B568144EFE03FD38B47814491C3CD
:10263000854A0504E31284FF63860A068A854146BB
:102640000145EF2010251B040500A2851755000049
:102650001305C5D4EFE05FD0814641468B35047C3D
:1026600017D5000013058570EFF02FB485472300C0
:10267000FB0097D500009385656F17550000130583
:10268000E5D4EFE07FCD97D500009385256E17D573
:1026900000001305A56EEFF03FA497D500009385C9
:1026A000E56D11BF17D5000003258573EFE07FB3FB
:1026B0001B040500A285175500001305A5CF59BFBF
:1026C000976500009385858A154603D42500EFF0B1
:1026D0000FC1033509001D46976500009385058AE3
:1026E0001505EFF0CFBFE30704DC09A8294697657D
:1026F00000009385A5A2EFF08FBE29440149BDB526
:10270000930595004285EFF09FC51B0495000B349F
:10271000043C975500009385E57C23918500254670
:1027200071BD05477D54E366F7DC85E397D700006C
:10273000A385076C8060E38F84D61C6C89C71C70EE
:1027400022859C6782970060FDB797D7000093872A
:10275000D76A83C60700E38FE6D42380E700806052
:1027600017590000130989C8638D8400086C41C1A2
:10277000CA85EFF0EFBD25ED1C70DA8522859C63DC
:102780008297806017590000130949C7638D840040
:10279000086C25C1CA85EFF0AFBB21ED1C70D68552
:1027A00022859C638297806017590000130909C62F
:1027B00063808402086C21C1CA85EFF06FB905ED12
:1027C0001C70975500009385E57622859C6382975F
:1027D00017570000034777719C68137707049C6BB9
:1027E00009CF8545E38807CC26858297E1B1006053
:1027F000A5BF006061BF006065BFE38D07CA81456A
:10280000E5B7054697D500009385355FEFF02FAD0E
:102810000544EDB5930610026302D7049306200227
:102820006302D7020144E316B7CC97F7FFFF938703
:10283000877E1B8409001CF6854717D70000A30D6F
:10284000F75A55B517D700000337474B2316F70043
:10285000854717D70000A301F75AA9B997D50000FB
:1028600083B5C5494E861B8409009105EFF02FA75B
:10287000E1B7828097D700009387C7A01757000061
:10288000233AF76E97D700009387C7D717570000F2
:102890002336F77097D700009387C7BE17570000FD
:1028A0002332F76E97D700009387C7C517570000EC
:1028B000233EF76C97D700009387C7CC17570000CB
:1028C000233AF76C97D700009387C7F31757000098
:1028D000233EF77C97D700009387C73A176700001D
:1028E0002336F78497D700009387C79117570000C6
:1028F0002332F76097D700009387C73C1767000023
:10290000233AF78297D700009387C7F7175700003D
:10291000233EF77E82809755000083B5A56541115F
:1029200017550000130505B306E4EFE0FFA2975525
:10293000000083B5A56617550000130525B3EFE029
:10294000BFA19755000083B5E56317550000130537
:1029500065B3EFE07FA09755000083B52563175559
:1029600000001305A5B3EFE03F9F9755000083B526
:102970006562175500001305E5B3EFE0FF9D97551D
:10298000000083B5A57217550000130525B4EFE0CC
:10299000BF9C9755000083B5657917550000130556
:1029A00065B4EFE07F9B9755000083B5A55417559C
:1029B00000001305A5B4EFE03F9A9755000083B5DA
:1029C0006577175500001305E5B4EFE0FF98A260A6
:1029D0009755000083B5857317550000130505B59D
:1029E00041016FE07F9701456F100030797122F04F
:1029F00017540000130484661C60975500009385EB
:102A000065B417D500001305653906F426EC4AE8CD
:102A1000846F4EE4EFF04FEC17D50000130505333B
:102A200097550000938585B2EFF00FEB1755000026
:102A30000335C5671377F503AA8709C79307000411
:102A4000999FAA97975900009389C95217D70000F8
:102A5000233AF72C83B7090093F6F70389C61307C7
:102A60000004159FBA97175900001309295317D767
:102A700000002339F7288337090093F6F70389C646
:102A800013070004159FBA9713060008814517D74E
:102A900000002335F728EFE0FFF803B5090013061F
:102AA00000208145EFE01FF80335090013060020E0
:102AB0008145EFE03FF79C7026859C6B829797D706
:102AC000000023B5A7261C60D853914763E2E702B4
:102AD000975700009387874931472391E7000547BF
:102AE0002382E7009307102017570000231DF75497
:102AF0009757000083B70740014517D70000233FD1
:102B0000F71E37170E00D8C32147239407002385EB
:102B1000E700A270027423960700E2644269A2698A
:102B200045618280B7070003C8430B359524828036
:102B3000411106E4EFF04F8C9307803E11E9B7078F
:102B4000000E9C638BB7170481EB8967938707712D
:102B5000A2603E8541018280E1679387F769CDBF1E
:102B60007571D2F097D7000023BEA71C97D700003D
:102B700023A2B72617DA0000130A0A2606E522E187
:102B8000A6FCCAF8CEF4D6ECDAE8DEE4E2E066FCB5
:102B90006AF86EF42320CA00B707000E23A20700CC
:102BA000EFF05FF809E9175500001305259BEFE0EA
:102BB000AFFA6D5911A1EFF0BFF79B040500A68590
:102BC000175500001305059BEFE00FF9E1679387A8
:102BD000E76963F497028547175500001305059BC5
:102BE00017D70000230CF720EFE00FF7B73700C02E
:102BF000370700038D072322F708A6851755000025
:102C000013054599EFE04FF59307803EBB87970288
:102C10003EE4B73700C0938717103EE8B71700C0EF
:102C200091073EEC97D7000023BE070C97D7000012
:102C300023B6070E97D7000023B6070E97D70000DC
:102C400023BA070E97D7000023BA070E97D70000C4
:102C500023BE070A97D7000023BE070A97D70000B4
:102C600023B6070C97D70000A389071897D7000051
:102C70002385071897D70000A380071897D700006F
:102C8000A38F071697D7000023AA071497D7000031
:102C900023B6070697D70000A3820716EFF09FBD63
:102CA000EFF07FC79757000083B7474617540000DF
:102CB0001304C43A175500001305C53A1CE49307E2
:102CC00000401CC89757000083B7C7463CE4EF009C
:102CD000B06C9B0905002A89639009021755000012
:102CE0001305453DEF00D05463570502175500000A
:102CF0001305C58CEFE04FE6CE8517550000130590
:102D00006595EFE06FE5B73700C0370700039D0713
:102D10002322F70855A4006011E41755000013059D
:102D2000E58BC9BFEFF09FCC0145EFE04FC942678B
:102D300017D900001309C90A2320A9002265B70783
:102D4000000323A2E708EFE04FC31C6885452285F6
:102D50009C7797D900009389E9FB17DB0000130BE0
:102D6000EB09829797DA0000938A1A0983C70A0051
:102D7000638607186267B7070003833B040023A23A
:102D8000E708854717D70000A30BF706130C2008A8
:102D900097DC0000938C8CFA17DD0000130D0DF703
:102DA00097DD0000938D0DF9631B741983470402AE
:102DB0000D476380E71E15476380E71E0947E39AC6
:102DC000E7DE9307000403B50900130600048145FC
:102DD00017D700002324F700EFE0DFC483B7090012
:102DE00017D70000033787F397DB0000938B0BFFA7
:102DF00017DC0000130C8CF198EBD8CF17F7FFFF0E
:102E00001307E73298F703A70B0003350C001306EE
:102E1000000498CF8145EFE0FFC083370C0017D73F
:102E20000000033727EE17D50000033525F183B5E1
:102E3000090098EBD8CF17F7FFFF1307E75A98F769
:102E400003A70B00854B98CF1C719C7382970C5085
:102E5000174500001305057CEFE00FD00145EFE0BA
:102E60000FB62320A900EFF01FB883C70A00E38B39
:102E700007EE97D70000938747F883C7070095EBC5
:102E800083470B00639D071003250900EFE02FB374
:102E90000125E3FAA4FCA6851745000013058579F2
:102EA000EFE08FCBB73700C0370700039507232229
:102EB000F7081745000013056579EFE0EFC9B7374C
:102EC00000C03707000399072322F7081C688145D3
:102ED00022859C778297175500001305A51DEF00EA
:102EE0000038B707000E03A94700B757474D93872F
:102EF00017E33309F940133919007DA8EFF0BFAE8D
:102F000003250900EFE0AFAB012563F3A40283477B
:102F10000B0099EF174500001305C56EEFE0CFC316
:102F2000B73700C03707000391072322F70851B1D4
:102F300097D7000083C797ECE38607E2E5B103B7B4
:102F40000B0305C30347270093071008631EF70010
:102F500003B70B025E85186B02972330AD0023B0D8
:102F60007D0183BB0B0089B58547631CF70003B760
:102F70000B025E85186B029723B0A90023B07C0179
:102F8000CDB7E31087FF03B70B025E85186B02977E
:102F9000C9BF9307002005BD930700402DB5E394FA
:102FA00077ED83270A00E39007EC1745000013052F
:102FB0006569EFE06FBA0549AA600A64E674A6790C
:102FC000067AE66A466BA66B066CE27C427DA27DC1
:102FD0004A8546794961828009C9830715070145F9
:102FE00063D60700130530FD8280355582807971E4
:102FF00022F0B86117D400000334C4DB26EC06F4D9
:1030000093870504047C630AF70017450000130545
:10301000E5682EE4EFE04FB4A26522850274BC6837
:10302000A270E26445618287797126EC97D4000032
:103030009384C4D7886022F00564130444802295E9
:103040002EE406F4EFE0BFF8A2659C60012589ED4F
:10305000B385870013652500EFE0BFF7A270027407
:10306000E264014545618280B38587007599EDB7BB
:1030700017D50000033505D4411122E01C7D06E47C
:1030800093050005BC6782972A8411C913060005C1
:103090008145EFE03F99930704043CE03CE4A260E3
:1030A000228502644101828051CD411122E006E473
:1030B0002A842955C1C53C60D1E3186C975700009C
:1030C00093874789630CF70603C715009547631775
:1030D000F7060347140783C725006311F70683D754
:1030E000450003578402636BF7048346240703C734
:1030F00035006388E60009466385C6008D46631F78
:10310000D7021305E0FD9DCB187C130560FC147FEE
:1031100095C6185305C72314F4020CF82CE0228539
:1031200023080406233C0404EF10803381452285E4
:10313000EF1000372285EF10C03C0145A260026409
:10314000410182802955828082808280175500004B
:103150001305458082801C6D0B55A5F81306852943
:103160008BD7F7F8232405049307850923BC07FEB2
:10317000238407028BD7F7F823B8070013870708C3
:103180006313C70082801465938787031CE5233C83
:10319000A7FA2330D7FC9CE2BA87C9BFB865B461EF
:1031A000011106EC22E80344050798E614E3985D54
:1031B00093870504BCE1BCE59307C0FD6313F700EA
:1031C00090DD85472308F5069C752AE482972265E1
:1031D00023088506E26042640561828039C5146D6A
:1031E000974700009387077729576381F6042A875A
:1031F0008B47976E938707FCBE860BC6866E6391DE
:10320000E60229576394F50241111306A0FCBE851E
:1032100006E4EFF0BFF8A26001473A8541018280E1
:10322000E384F5FE930706FCC1BF29573A858280E7
:10323000797122F026EC06F4AE84130485042C6523
:1032400063978500A2700274E264456182802686DD
:10325000938505FC2AE4EFF07FF42265CDB7397140
:1032600022F817D400000334E4B406FC26F44AF034
:103270004EEC52E856E43DCCAA842955BDC0187CDA
:10328000631197061850233C0402A68911E3814973
:103290002320040213090405130A0425854A230880
:1032A00059074A85930560FC13090908EFF05FF898
:1032B000E31749FF6386090083B789022285829755
:1032C0002285EFF05FE99C6C2285829722858145FB
:1032D000EF10000E014523240404232004022308D8
:1032E0000424E2704274A2740279E269426AA26A1A
:1032F000216182803555F5B7011122E826E406ECFC
:103300002E84AA84EFE0BFCC0125418D4264E260A7
:10331000A685A26405616FE0DFCB011122E806EC0F
:103320002A842EE4EFE0BFCAA265E260012593C7BC
:10333000F5FFA28542647D8D05616FE09FC9011193
:1033400026E497D40000938464A6886022E805648C
:10335000130444808545229506ECEFF0FFF92945DA
:10336000EFD05FE5886085452295EFF01FFBE260B6
:103370004264A264014505618280797122F026ECE5
:103380004AE84EE406F42A89AE89B2840144631BFC
:103390009400130540FCA2700274E2644269A269C1
:1033A000456182804A85EFE09FC201253375350172
:1033B00011E50545EFD07FDD0524D1BF0145E1BF13
:1033C000011126E497D400009384449E22E82A84C5
:1033D0008860096613060671B7050080410506EC92
:1033E000EFF0BFF919C9974500009385254E1745A1
:1033F00000001305252DEFD03FF68C601B156400EF
:1034000013650502C1050125EFE0BFBC13044006AA
:1034100088604105EFE0BFBB1B0605001375050280
:1034200009CD7D3415E0974500009385254A174561
:1034300000001305252BEFD03FF24264E260A26446
:10344000054505616FD07FD40545EFD01FD4C9B7BE
:10345000011126E44AE006EC22E803441507AA8499
:10346000130900603D8819E0130900102685EFF06C
:103470003FDC05651305859116042A9417D50000D5
:103480000335C5922295EFE09FB40B35053C0A0544
:10349000637925014264A85CE260A2640269056167
:1034A00005B7E2604264A2640269056182808327F5
:1034B0000527A1CB011122E826E44AE006EC2A8484
:1034C000232805269304050D130905259C6C91C737
:1034D000930560FC2685EFF0BFF793840408E3971B
:1034E00024FF1C7C9C7781CB22854264E260A2642D
:1034F000026905618287E2604264A2640269056133
:1035000082808280011122E817D400001304048A0B
:103510000860096613060671B7050080410506ECD0
:1035200026E4EFF09FE519C9974500009385853B98
:103530001745000013050519EFD01FE20C601305B5
:103540000040B704800193854502EFE09FA80C601E
:10355000370540001305054093858502EFE07FA7FE
:103560000C601385044493854510EFE09FA60C6022
:103570001385045C93858510EFE0BFA50C6013856F
:103580000474930440069385C510EFE09FA40C607B
:1035900013050043C105EFE0DFA308604105EFE03C
:1035A0001FA31B060500137505030DC5FD3499EC1B
:1035B0004264E260A264974500009385A5321745F6
:1035C00000001305251505616FD01FD90545EFD003
:1035D000DFBBE1B7E2604264A2640561828017C785
:1035E00000000337277D8346150713070705631C73
:1035F000E500974500009385652A174500001305EF
:1036000065146FD07FD539714AF052E817C90000B0
:103610001309C97906FC22F826F44EEC56E40BB7E0
:1036200076FC033A090093F7F6006305070E9387CB
:10363000870496073E9AAA845285EFE05F999B091A
:10364000050063DA090883C71407033509000BB7BF
:1036500077FC13F4F70071C3130484041604B30A4F
:10366000850021042A94B70500085685EFF0DFC8CD
:1036700013064006930500042285EFF01FD019C9F8
:103680009745000093850520174500001305050D9B
:10369000EFD09FCCB70500485685EFF0FFC5130665
:1036A000400689452285EFF05FCD19C99745000096
:1036B0009385451D174500001305450EEFD0DFC962
:1036C00089452285EFF05FC38387140763D1070A1A
:1036D000A85CEFF0FFCE3785FF7F7D15B3F9A90019
:1036E00037050008D28533E5A900EFE09F8E2685D7
:1036F000930560FCEFF0DFD585472388F406E27080
:10370000427423B004040279A274E269426AA26A94
:10371000216182809387870529BF130484051604DD
:10372000B30A850021042A945105EFE05F8A1375DE
:10373000050819E9033509008567938747809305D4
:1037400000203E95EFF05FBB0335090013064006ED
:10375000930500085105EFF05FC20DDD97450000AD
:1037600093854512174500001305450115B703352C
:103770000900856793874780930500403E95EFF0E9
:10378000BFB791BF09CD3861A95719CB411106E4E4
:10379000EFF0FFE4A26081473E8541018280A95796
:1037A0003E858280397126F44AF04EECAA84833932
:1037B00005042E89130505059305A0FC06FC22F8D7
:1037C00052E856E4EFF0DFC82685EFF0DF9817C423
:1037D00000001304A45D63170922086013050504A3
:1037E000EFE0EFFE0C6091670B35053C9387972067
:1037F000C10563EEA7060545EFE0AFFD130A3003F0
:103800000545EFD09F9808607D3A4105EFE02FFC19
:103810001B06050063140A0297450000938585097D
:1038200017450000130585F94274E270A27402790D
:10383000E269426AA26A21616FD01FB2058A69F209
:10384000130A30030545EFD05F9408607D3A4105C7
:10385000EFE0EFF71B06050063180A069745000026
:103860009385450517450000130545FA75BF0545C5
:10387000EFE02FF6930A3003370A00200545EFD01A
:10388000DF900860FD3A4105EFE06FF41B0605008C
:10389000639B0A00974500009385C501174500000A
:1038A000130545F451B73376460169DA08604105DE
:1038B000EFE0EFF10C600125799933654501C10511
:1038C0000125EFE00FF1ADBFE35E06F603A50903A6
:1038D00009E5371508401305F5400C60B105EFE028
:1038E0004FEFEFF03FC263100902086085699389CA
:1038F00049804E95EFE0AFED0C6001251365250082
:10390000CE95EFE00FED0C608569138A0980D295A2
:1039100037050400EFE0EFEB0C607D559105EFE01B
:103920004FEB0C607D55D105EFE0AFEA0C603745F9
:103930000C8013050581E105EFE0AFE90C6005455A
:10394000A105EFE00FE90C60938709813545BE952D
:10395000EFE02FE80C60938749813545BE95EFE095
:103960004FE70C609387C9814165BE950505EFE07F
:103970004FE6631F09020860938949804E95EFE086
:103980000FE50C60012533654501CE95EFE06FE44E
:103990002945EFD08FFF08604E95EFE04FE30C60B4
:1039A000FD7701259387F77FCE957D8DEFE06FE260
:1039B0002685EF00407C0C60856793870790BE9555
:1039C0002165EFE00FE193090050631409009309AA
:1039D000205008608564938444802695EFE02FDFB3
:1039E0000C60012533E5A900A695EFE08FDE427457
:1039F000E270A2740279E269426AA26A0D4521610D
:103A00006FD04FFBFC7489C71385040DEFF03FBDE9
:103A100083B7841689C713850415EFF05FBC83B79D
:103A2000841EE38507EA1385041DEFF05FBB79BDB3
:103A3000397122F826F406FC4AF04EEC52E856E4BE
:103A400097C4000083B4043729540DCD1C450547A5
:103A50002954F9376368F7021C698DC718751DC3AF
:103A600018710DC3386519CF386909CF355499C815
:103A7000987C415401EB88FC268582972A8409CDE5
:103A800023BC0402E27022854274A2740279E269C6
:103A9000426AA26A2161828017C9000013090931B4
:103AA00083350900856993874981BE95354503BAF9
:103AB0000404EFE00FD2833509009387098135456F
:103AC000BE95EFE00FD1833509009387C981014589
:103AD000BE95EFE00FD003350900938949804E95DC
:103AE000EFE0EFCE83350900012513652500CE9563
:103AF000EFE02FCEEFF01FA183290A0363960900A0
:103B0000B719084093897940B707000E83C70700AB
:103B1000014AA18B95C7B76A000313854A01EFE0FC
:103B20000FCB1B0A050093854A011305B018EFE07F
:103B30004FCAB73700C037070003AD072322F70885
:103B4000833509004E85B105EFE0AFC8B707000E19
:103B500083C70700A18B99CBB76500035285D105B8
:103B6000EFE02FC713054006EFD02FE283350900A1
:103B70000545A105EFE0EFC581452685EFF09FC221
:103B800023A0040201B701C91B151500B335B0000D
:103B90000D9D1375F50F82801045011106EC22E88A
:103BA00026E49307702763E0C7021745000013055A
:103BB00065C893058027EFD02FFA7D55E2604264F7
:103BC000A264056182800061AA8413068027814572
:103BD0002285EFD03FE58C7017470000130707568A
:103BE0001306002097C7000023B2B71C97470000B8
:103BF0009387C7D11CE8930704051CEC9747000086
:103C00009387C7CF1CF88347C40238F878F893F736
:103C100007FC93E717002306F4028D475CD0974713
:103C20000000938727D33CF493070004231CF40679
:103C300097470000938707D37CF493071028A310BD
:103C4000F414854793960702138526002332A414A3
:103C50008506174500001305E5D12334A416233249
:103C6000D41C13051020974600009386A6D1861712
:103C70008D072338E4162338E41E24E023080424A7
:103C800040E4A310040C2322040C231CC40E233490
:103C90008410231CC41623348418A310A41C2334BA
:103CA000D41E231CC41E2334842013072038A310E1
:103CB000E4242332F42497C7000023BD870EBC60A0
:103CC000233CF42489EB174500001305A5B9EFD078
:103CD000AFE85155E5B522852320F4262334B426D8
:103CE000EFF06FC70145D9BD011126E497C400006C
:103CF0009384C40B886006EC22E85105EFE02FADF9
:103D00001B04050088606105EFE06FAC0125698C3C
:103D100001CC4264E260A26497C5000083B58509C6
:103D2000054505616F00703DE2604264A264014593
:103D300005618280797122F006F426EC0D47033488
:103D40008526974600009386664497470000938730
:103D500027446391E5061307000498C21307002067
:103D600098C30CD183D70700856493850490A295EE
:103D700013070004231CE506231CF50E231CF5166F
:103D8000231CF51E2E852EE4EFE06FA4A26501250D
:103D90007199938404B0EFE0CFA326942285EFE0DD
:103DA0000FA3A2850274A270E26401257199456196
:103DB0006FE02FA21307000498C298C3094718D1D7
:103DC00055B7011122E806EC034715071C7D2A842C
:103DD0008B3677FC83B587269377F7009DCE938744
:103DE00087049607BE952E852EE4EFE04F9EB70719
:103DF000E0FFFD1701257D8D834724070547A26558
:103E0000F93793F7F70F6365F700B70700105D8D7B
:103E10004264E26005616FE0CF9B93878705D1B76D
:103E2000011106EC034715071C7D8B3677FC83B523
:103E300087269377F7009DC6938787049607BE95DC
:103E40002E852EE4EFE0AF980125A26563550500AD
:103E5000B70700405D8DB70720005D8DE26005610A
:103E60006FE02F97938787059607BE952E852EE4E2
:103E7000EFE0EF95B70720005D8DA2650125F9BF42
:103E8000397122F80334852626F485644EEC938537
:103E900004B1B70908004AF0A2952A891385890060
:103EA00006FCEFE00F9303250926938544B1A29504
:103EB000EFE02F92938504B0A2952E852EE4EFE0DB
:103EC0000F911B040500370500C07D15A265698CA4
:103ED00037050084498C2285EFE0AF8FA2854274BC
:103EE00003260926E270A274027993868900E269AA
:103EF0003795080001471305858821616FF0EFA40D
:103F0000797122F00334852626EC4AE885642A89F3
:103F10000325052693854491A29506F4EFE06F8B67
:103F200093850491A29537050800EFE08F8A938569
:103F30000490A2952E852EE4EFE06F891B04050006
:103F4000370500C07D15A265698C37050084498C52
:103F50002285EFE00F889D47A2850274032609267B
:103F6000A270E2642324F904426937B50A000147CC
:103F7000B70608001305A5AA45616FF00F9D011152
:103F800022E826E403348526AA8437750800130541
:103F900075080147814601464AE006EC2E89EFF09C
:103FA000CF9A0565630B0902130505902295EFE092
:103FB0000F820125B70720005D8D85656302090228
:103FC00093850590A295EFE0CF80E260426423A440
:103FD00004040269A26405618280130505B0F9B783
:103FE000938505B0C5B7797126EC06F422F04AE84E
:103FF000187D83471507AA84C85D90698336872694
:104000000B37057C3A96984DBD8B9165099F99E3D6
:1040100083D5840233B5E5000B97A542B8D0B0F440
:104020001B090700054491CB6309090003D78402EB
:104030001B04F9FF3B54E402052493878705960788
:10404000B385F6002E852EE4EFD07FF8B054B70488
:104050000084A265C98C812426851B14340132E0BA
:1040600033648900EFD0FFF6A28602740266A27064
:104070004269A685E2643775070001471305757725
:1040800045616FF08F8C5D7156ECAE8A26FC8145E0
:10409000AA845685A2E04AF84EF452F086E4EFF086
:1040A0009FAE1B0A05001E0AB38744011314750056
:1040B00003B9870993098409A699638129090565CC
:1040C000130505B193975A00AA9703B58426930563
:1040D00009FC2EE43E95EFD09FEF9B070500A265FB
:1040E00013F7F70763840A00032709FE33884401A6
:1040F0008328C9FF8327080B032689FD13050405C0
:10410000999F3B071641B3B6E7000B97D742BB0612
:10411000170103578807232ED9FE2695BBF7E70220
:1041200099E36311D60463940A02B844914763107B
:10413000F7022685EFF0DFDC9D47BCC4A66006646D
:10414000E2744279A279027AE26A61618280014670
:104150002AE4D294EFF08F84CC6CE381B9FE22651F
:10416000938505FC0664A660E2744279A279027A1E
:10417000E26A61618DBD833585268567938707B1C6
:1041800037050820BE9521056FD0BFE479714AE854
:1041900003398526850522F0B2051B84360026ECFE
:1041A00006F40B3424402E9981449B87040063E875
:1041B0008700A2700274E2644269456182800B4507
:1041C0009644CA8532E4EFD0DFE022668504F1BF71
:1041D0001C7D1971A2F8CEEC62F86AF0804D03BD27
:1041E000872686FCDC5DA6F4CAF0D2E8D6E4DAE0E5
:1041F0005EFC66F46EEC9869834C15070BB6077C81
:104200001D9C93FCFC003A96916722872A8CE689D4
:1042100063F3E7001164639B0C0003578C02BA87B9
:104220003337E4008B17E4421B84070023208C06FD
:104230002334CC061B0A0600854701C803558C02AF
:104240009B07F4FFBBD7A7028527856D139B5C00F6
:10425000938A0D91DA9A9B973701EA9A3365F400B5
:10426000D68532E4EFD0FFD693870D903E9B6A9BB4
:104270005A85EFD0DFD583278C07B70440BC9B0B52
:104280000500FD149B976701B3F49B00DD8CE1777B
:104290009387F77F8124FD8CB7070084DD8CDA8556
:1042A0002685EFD01FD3226603358C038B36043C62
:1042B000E685EFF0BFED09C893854D830545EA9586
:1042C0003B153501EFD0FFD05A85EFD05FD01B07EB
:1042D000050037450400DE865286A6851305454451
:1042E000EFE0BFE65685EFD09FCE9B050500376512
:1042F0000400CE862286130545460147EFE0FFE421
:10430000E67022854674A6740679E669466AA66A4E
:10431000066BE27B427CA27C027DE26D09618280B9
:1043200079714AE803398526850522F0B2051B8498
:10433000360026EC06F40B3424402E9981449B87EA
:10434000040063E88700A2700274E2644269456178
:1043500082804A8532E4EFD09FC722660B5596448F
:104360008504F1BF79714EE48359850222F026EC71
:1043700006F44AE8AA842E84EFF09FE50125639EA7
:10438000A9005C5C184C0145BB873701631BF70033
:104390005C5037070200F98F89E79C7C054523A410
:1043A0000704A2700274E2644269A26945618280D6
:1043B000797126ECAE8483358526856793870780DF
:1043C000BE9522F02A842E8506F42EE4EFD03FC05D
:1043D0009B974400A2655D8D0125EFD09FBF22858C
:1043E000EFF01FB2854723089424A2702328F426F7
:1043F0000274E264456182804C6D9306850913075F
:104400000505638ED50083A685FD89E62328050A68
:104410006FF01FAF938505FC3A856FF0DFBC82809B
:104420004C6D93068509638BD502411122E006E4A9
:10443000938505FC2A8413070505014589C93A853A
:10444000EFF05FF285476318F50095473CC4A26022
:104450000264410182803CC40545D5BF014582808C
:10446000011106EC034715071C7D8B3677FC83B5DD
:1044700087269377F70095C2938787049607BE95A2
:104480002E852EE4EFD0BFB4A265E260B707000826
:104490005D8D012505616FD0DFB393878705F9BF77
:1044A0000347150721CD3461AA87A9CA1376F700FF
:1044B00031C603C6360085466302D604011106ECF8
:1044C00099CD8B3677FC9DC234651307850493051F
:1044D000D0FD638DE600E2602E85056182802308B1
:1044E00005062EE4EFF0FF8DA265F5B7054723889A
:1044F000E7063E85EFF0DF928145F1BFA9552E8595
:1045000082801C7D797122F026EC4AE84EE406F4A4
:1045100083B48726834715070549AA8913F4F70052
:104520000BB777FC3B19890025CF130584041605CA
:104530002695EFD0DFA901258B37F53C9DEFB70716
:10454000F4FFFD177D8D83C72907930584049B978E
:1045500027015D8D83D78902137505805D8DB7872F
:1045600000185D8D83871907012563C40700930533
:1045700084059605A695EFD0DFA585659385C58151
:10458000AE942685EFD0BFA401250274A270A26963
:10459000A68533652501E264426945616FD07FA33A
:1045A0001305840516052695EFD07FA201251B195A
:1045B000090159B73C4563910734397126F48334B6
:1045C000852522F8930540FA2A84130505054EEC4B
:1045D00006FC4AF052E8EFE0BFC583C7040003477A
:1045E000140C83D964000BB677FC9376F70709C6E1
:1045F000136707F89376F70F93F707060347142519
:1046000093B717009B97170093E717008D8B719B4B
:10461000D98FA308F424A300D40C898B638A0724C0
:1046200003C71400AD4763E8E72ABA8717370000CD
:10463000130787378B47F744BA97828703D624003E
:1046400037C50B000147814685451305B5BBEFE033
:10465000DFAF83C70400639D07202285427483C5B2
:104660002400E270A2740279E269426A21616FF06B
:104670003FD403D6240001478146894537C50B0046
:104680001305B5BBEFE07FACE5A2014781460146CB
:104690008D45EDB70147814601469145C5B70147B4
:1046A000814601469545D9BF37C50B000147814674
:1046B000014699451305B5BBEFE03FA903D544007A
:1046C0008B35751C1375F507EFF0EFCB2317010041
:1046D00083C504002A89173500001305A52BBD8961
:1046E000033A8426EFC05FC783C704000547BD8B2C
:1046F000638AE7008946638BD706639B07162317F7
:10470000E10019A02317010003358425094693050C
:10471000E100EFD0CFB6856403250426938544914C
:10472000D295EFD01F8B9385049137050800D29561
:10473000090593840490EFD0DF89269A5285EFD043
:104740001F89B70700C0FD1701257D8DB7070084BD
:104750005D8DD285EFD0FF87A1473CC4E2704274E3
:10476000A2740279E269426A2161828003D76400FF
:1047700063E0E71001291E0922998347090C2317DA
:10478000F10059B737C50B000147814601469D45E9
:104790001305B5BBEFE07F9B03D544008B35751C3B
:1047A0001375F507EFF02FBE1319750013090905EE
:1047B0002299033A890303378A2583576700CDEB93
:1047C00083470700BD8B95C78946E399D7F8835780
:1047D0002700C9F7034419073D8815E4854552852C
:1047E0004274E270A2740279E269426A21616FF058
:1047F0000FF952854274E270A2740279E269426A4A
:1048000021616FF0EFEF5285EFF08FEF4A85EFF007
:104810004FDB4A85EFF0FFCE854723080906230AC0
:104820008A26A30AFA261DBF37C50B000147814619
:104830000146A1451305B5BBEFE03F9103D5440008
:104840008B35751C1375F507EFF0EFB31E051305D7
:1048500005052295033985038337892503D767002A
:1048600001EB03C707003D8B15CB89466305D704D1
:104870001C7CBDCF9C73A68522858297635205065A
:1048800083D76400854589C78305140C9BD5F50142
:104890004864EFF0CFEE23240404C9B583D6270083
:1048A00009476398E60083D747009BD78700230B0F
:1048B000F9264A8581B783D72700E5FF8347150787
:1048C000BD8B81E785454A8521BF85472308F506CD
:1048D000EFF00FD5F9BF014781460146A54579BBE9
:1048E0008347142513F7170001C7F99BA308F42485
:1048F000E39609E62285FDBD82801971CEEC83B96D
:104900008526CAF0A2F8138949014A85A6F4DAE09F
:1049100086FCD2E8D6E45EFC62F866F46AF06EECDF
:104920002E84138B8901EFD08FEA9B0405005A85F2
:10493000EFD0EFE96385041C30449B0A0500056550
:10494000130585814E9532E4EFD06FE822669B0611
:1049500005003D650147A6853D15EFE00FFF93F784
:104960000401B5C3DA8513F5FAFEEFD08FE613859F
:104970000902EFD0CFE5937BF5001B0A05008145C6
:104980005E85EFF04FA0B7071E00B377FA00370738
:1049900004006396E7180B3A4A3863010A029B0742
:1049A00005009E07A29703BC8709D286DE850336E1
:1049B0000CFD2285EFF0DF9623204CFFDA8513E50E
:1049C0000A01EFD00FE18BB7D4349DCBCA850965BE
:1049D000EFD02FE00565130585804E95EFD02FDFD2
:1049E0001989630B051489452285EFF0AFB4096579
:1049F000014781460146894513052522EFE0EFF482
:104A000093F7044091C7CA8513050040EFD06FDCCF
:104A10000565130A0580B3F7440195C31305858026
:104A20004E95EFD0CFDACA855285EFD08FDA1C5081
:104A300099C71C7C89C79C7B99C32285829763DFB9
:104A40000400CA8537050080EFD0AFD81C5099C745
:104A50001C7C89C79C7F99C322858297B7178000E9
:104A6000E58FBDC34E85EFD08FD69B090500056548
:104A7000014781460146CE8513051511EFE0EFECA5
:104A80008BB7C43089C7CA850565EFD08FD48BB783
:104A9000745D91C7CA8537058000EFD08FD3370585
:104AA0000C00B3F9A900B7070C00639FF9000329B4
:104AB00004272285EFE0BF9F630609008545228514
:104AC000EFE05FCE232404048BB72449C1E78BB405
:104AD000344D95C4033B84260565130585815A959D
:104AE000EFD0EFCE376A06008D6A8B39057D01491C
:104AF000994B130A6A66938A3A336392092AE670DD
:104B00004674A6740679E669466AA66A066BE27B75
:104B1000427CA27C027DE26D0145096182803707FB
:104B20000C00E39DE7E8033684258B364A38DE85A2
:104B30002285EFF0EFFE59B5096501478146014630
:104B4000854513052522EFE04FE08D452285EFF0E6
:104B50006F9E7DB5033A8426856A13858A815295B6
:104B6000EFD0EFC6377B7300B77B7400375C05006E
:104B70008B39053C0149130B3B37938B4B47130C87
:104B80005C55938A4A80E38409F493F71900638A99
:104B9000071A930C8904960C938D8C00D29D6E8518
:104BA000EFD0EFC21B0D050013850C015295EFD01D
:104BB0000FC29B06050033059A0136E4EFD02FC1E2
:104BC000A2661B0705006A86CA855A85EFE0EFD703
:104BD00013854C015295EFD08FBFE10C9B0505006A
:104BE00033059A012EE4EFD08FBEA2651B060500A7
:104BF000014781465E85EFE04FD56A85EE85137DDE
:104C00001D00EFD00FBD630E0D1285454A85EFE004
:104C10009FF79B0C05009E0C33089401033688090E
:104C2000131D7500930D8D092C44A29D3306B641CA
:104C30008146014713361600628542E4EFE0EFD06B
:104C40003444A1472268639AF60099473CC4228500
:104C5000EFF00FA363060904EDA003378809E38B87
:104C6000EDFE0323C7FF832887FD8327080B130569
:104C70000D053B8E68403336FE008B17CE423B86D7
:104C80006700232EC7FE2295930507FC631B0908C6
:104C900085476393F606EFF0EFEC19C195473CC4E6
:104CA00083476427A1C3033D8426BE8D3EE4569D01
:104CB0006A85EFD0CFB1A2679B0C05001147FD3785
:104CC00093FCFCF86360F702EE85173500001305CE
:104CD000E5D0EFC06FE813954D00EA853365950187
:104CE000EFD02FAF3C441D476393E7062324040411
:104CF0002285EFF04FC8A9A89D476398F6000146AA
:104D0000EFE0CFC92324040461BF9547E39AF6F886
:104D10000146EFE0AFC899473CC42285EFF04F96BB
:104D200041B76397C80001462AE4EFE02FC7226528
:104D3000A29C83B58C096386BD00938505FCEFF0CA
:104D40002FC905291379F90F93D919002DBDCDD39A
:104D5000034754278547E316F7FE03454427854557
:104D6000EFE07FE21B0705001E07229793177500EF
:104D70004C6F1385070593878709A2972295638A4D
:104D8000F5008307170C938505FC63D70700EFF048
:104D90002FC4A30A042675B7EFF0EFA4DDBF93F785
:104DA0001900A1C3930489059604A104DA94268509
:104DB000EFD0EFA11B0605003285A68532E4EFD0C7
:104DC0004FA1226663100906937786008DC356852E
:104DD0000147814601468145EFE02FB72285EFF07C
:104DE0006FFD05291379F90F93D9190039B393771A
:104DF0001600E5DB3C4401478146638B770185451E
:104E00005285EFE08FB481452285EFF0CFA7D1BF67
:104E100052858945EFE06FB3228523240404EFF027
:104E20008FB5C1B7058A55DECA85F9BF0387150757
:104E300063560700054738C56FF08FDE114738C548
:104E40006FF08FDB81E5A9573E8582809C75E5DF99
:104E50009C69F5DBBC6179714AE806F422F026EC26
:104E60004EE4138905046317F9062DC53C61AE8431
:104E70002A84B9CB087C83461407930760FC187D0D
:104E800039CB1851930760FC39C785478217938740
:104E9000C7FD033785269CFC3C6493098404639F0B
:104EA000F90483470407B9EB93F7F6008DEF3C68EC
:104EB0002338240523B03405BCE423B02701A285A0
:104EC000EFF0DFF6814701A883398501EFE00FA8F5
:104ED000E382A9FAA957A2700274E2644269A26946
:104EE0003E85456182808BB776FC1305470185C3FB
:104EF000EFD0EF8DA6852285EFF08FAD3C6823388B
:104F0000240523B03405BCE423B0270165BFEFD0EE
:104F10000F8CA6852285EFF00F8DCDB7797122F029
:104F200026EC06F432E4B707000EAE848C632A84C4
:104F300017350000130505AC8BB75550BE851737E4
:104F400000002319F724EFC02FC1228502742266C6
:104F5000A270A685E26445616FD09FC0B7070010BC
:104F600023A6070023800702184198CF256713075F
:104F700007802384070298CB370700101C57858BC6
:104F8000F5DF230007028280397122F826F44AF007
:104F90004EEC52E806FCB7070010256923A607006F
:104FA0009304903E954937040010054A130919806F
:104FB000FD34C9E8114681452800EFC0BFA693071C
:104FC000600628002304F100EFF05FF9930790F9E1
:104FD00028002304F100EFF07FF813054006EFC02E
:104FE000CF9A4167B72700032507B8C337070200E8
:104FF0002507B8C723A8070223AA07023707060414
:10500000B71700405CD3B7171100938707905CC3B4
:10501000B707001037C7080023A60700090798C381
:105020008546D4C73747060023A20700E2704274C2
:10503000130797B298CBD4C7A2740279E269426A87
:1050400021618280114681450A85EFC0BF9D1146CE
:1050500081452800EFC01F9D230031012326040055
:105060002320040282471CCC23240402232A440167
:10507000232824011C54858BF5DF1C4C3EC42300DF
:10508000040283478100858B95D70545EFC08F9239
:1050900005B7014797360000938646979B070700A0
:1050A00063C3C70082800BC8E5808B37859C1B15C6
:1050B0008500B3C7070181278BC7F6A205073D8D81
:1050C0000B35053CE1BF411106E437F700B222E0A1
:1050D000B707000323A2E708EFC04F939307803E72
:1050E0001B05753E3B55F5029737000083B707DF78
:1050F00017260000130606E597250000938585E630
:105100003704000E2390A70017350000130505B0E3
:10511000EFC08FA40C4017350000130525B0EFC079
:10512000AFA39737000083B7E7DA17350000130500
:1051300065B0CC4703A6070EEFC00FA20C4C173585
:1051400000001305A5B2EFC02FA10545EFF0DFE386
:10515000EFC0FFADEFC02FC9EFC00FE8EFC0EFEB1E
:10516000EFC0DFD1EFC09FE217350000130585B116
:10517000EFC08F9E01A0411122E02A841735000064
:10518000130545B106E4EFC02F9D0C401735000014
:10519000130545B1EFC04F9CEF002001EF004029FF
:1051A000A2600264014541018280B7070003CC433D
:1051B0003971B70705038BB5C5791735000013059D
:1051C000E5AF22F826F44AF04EEC06FC83A98710DE
:1051D0002EE4EFC06F98A26517370000130747BC95
:1051E00017B900001309E9C18B47B74497B4000011
:1051F000938404C117B400001304B4C0BA97828723
:105200008D4709472300F9002380E4002300F400C0
:105210001DA891472300F90085472380F4008D479E
:10522000F5B717350000130565AAEFC0EF928BB7ED
:1052300059652300F9008BB7A9719BD9D901238047
:10524000F40023003401834504008346090003C6AB
:105250000400173500001305E5A9EFC0EF8F834563
:10526000090025479B87F5FF93F7F70F6369F70858
:10527000173700001307C7B48B47F74417B900006E
:10528000130919B8BA9782878D472300F900894717
:105290002380F40085479DBF91472300F90085478F
:1052A0002380F400A5B7173500001305A5A2EFC0B1
:1052B000AF8A51BF173500001305C5A4EFC0CF89D1
:1052C00085472300F90083C504008D476389F50CE9
:1052D00063E2B7048544638A950489476384F50AC9
:1052E00017350000130585A6EFC00F872DA81735C9
:1052F00000001305A5A1EFC02F868947D9B7173540
:105300000000130525A1EFC02F8597B70000A389E2
:1053100007AE55BF9147173500001305A5A2E391CD
:10532000F5FCEFC06F83814739A8173500001305DE
:10533000E59F2EE4EFC04F8283470400A26563859A
:10534000B706E167AD07370700032326F708834553
:1053500004008947638CF5068D47638DF504854706
:1053600017350000130505A0638AF5044274E27046
:10537000A2740279E26917350000130525A12161A5
:105380006FB09FFD173500001305C59AEFB0DFFC25
:1053900083470400638D9700E167ED076DB717350C
:1053A00000001305A599B5BFE167B10769BFE167C3
:1053B000F10751BF173500001305C59B4274E27019
:1053C000A2740279E26921616FB01FF917350000FC
:1053D0001305459BE5B717B50000034585A28280FC
:1053E00037070300B7870008050798C393860708A7
:1053F00098C29386071098C29386071898C293861E
:10540000072098C29386072898C29386073098C2CF
:105410009386073898C29386074098C293860748B8
:1054200098C29386075098C29387075898C3828082
:10543000797106F4EF00F06FEF10A02BB7A700080A
:1054400023A00702B7977700370700039387A78A3F
:10545000232CF71C896793879729232EF71CEF10BD
:105460008070EF00B018EF001075EF00D068EF000B
:10547000F019EF008079EF009008EF00500CEF007A
:105480005001EF009004EF00500EEF00E01B1008F9
:105490002C086800EF00E049B24785E317350000AB
:1054A0001305C594EFB05FEB8B46C1FAB2451735D3
:1054B000000013052595EFB03FEAEF104046EF00DE
:1054C000D012EF00601810082C086800EF0060464A
:1054D000B24785E31735000013054591EFB0DFE7CC
:1054E0008B46C1FAB245173500001305A591EFB000
:1054F000BFE6EF001028EF00201510082C08680008
:10550000EF002043B24785E3173500001305058EF1
:10551000EFB09FE48B46C1FAB24517350000130582
:10552000658EEFB07FE389450545EF00B0458545C1
:105530000545EF00304581450545EF00B044EF00DB
:10554000A01010082C086800EF00A03E37070008E4
:105550008327C708054593F7F7F093E7070197B648
:10556000000023A1F6882326F708EF00502CEF0057
:10557000A00D10082C086800EF00A03BEF1040378A
:105580001305B100EF00D0580345B100EF10003C07
:105590000345B100EF10C015EF00F016EF00C00A90
:1055A00010082C086800EF00C038B24781EB1735AF
:1055B000000013052589EFB03FDA01A0EF00A00D30
:1055C00010082C086800EF00C036B24781EB173591
:1055D000000013052587EFB03FD801A01735000064
:1055E0001305C587EFB05FD7B78700089545ACCBEB
:1055F00013860708370700012CCA1307071098C342
:10560000D44393F606C0D4C318C2544293F606C0DE
:1056100054C2138607402CCA93870748ACCB18C2E4
:10562000544293F606C054C298C3D843137707C0B8
:10563000D8C337A700085C4B93E707105CCBEFF0AB
:105640003FDAA2704561828037070600B70701087C
:10565000190798C3370720800111130707A03AC61E
:105660003707204002E802EC130707A0B8C332470F
:10567000F8C34247B8C75247F8C76247B8CB72472A
:10568000F8CB3707100023A807007D17D8CB1147A8
:1056900098CF0561828037070C00B70701083107F2
:1056A00098C30567130757F0D8D337371080011117
:1056B0001307F7C03AC6370700C0050702173AE8D4
:1056C0003737104002EC1307F7C0B8C33247F8C3AE
:1056D0004247B8C75247F8C76247B8CB7247F8CBC2
:1056E0003707100023A807007D17D8CB1307000247
:1056F00098CF0561828037070600B70701081907B0
:1057000098C301113747008002E802EC02C6130774
:1057100007A0B8C33247F8C34247B8C75247F8C7D3
:105720006247B8CB7247F8CB3707100023A80700B1
:105730007D17D8CB114798CF05618280B707060047
:105740003707010899071CC3011119E5B717002095
:105750008A07938707A0ADA08547631CF50485677A
:10576000938757F05CD39727000083B7A7703EE478
:105770009727000083B787703EE88D47FA078507B3
:105780003EEC2247B7070108B8C33247F8C3424787
:10579000B8C75247F8C76247B8CB7247F8CB37074C
:1057A000100023A807007D17D8CB114798CF0561BB
:1057B00082808947631AF5009727000083B7876CBA
:1057C0003EE402E802EC75BFC9476314F502B70670
:1057D000000883A746080967130707F0819B93E732
:1057E000D701D98F17A70000232EF75E23A2F60852
:1057F000E1B7C147E317F5F83706000883274608E5
:105800008966938606F0819B93E7170013C70730DC
:10581000758FB98F17A700002326F75C2322F6089F
:1058200035B7B70706003707010899071CC30111F0
:1058300009E99727000083B767653EE402E802ECB8
:1058400035A08547631CF5048567938757F05CD3C3
:105850009727000083B707623EE49727000083B7CD
:10586000E7613EE88D47FA0785073EEC2247B70718
:105870000108B8C33247F8C34247B8C75247F8C710
:105880006247B8CB7247F8CB3707100023A8070050
:105890007D17D8CB114798CF05618280C547172760
:1058A00000001307A75E631FF500C16793871730D9
:1058B00097A6000023A8F652B706000823A8F618FA
:1058C0001C63A5BFC947E316F5F6C9679387D7F1EF
:1058D000C5B737070600B7070108190798C305675A
:1058E000130757F0D8D3373710400111130707E0DB
:1058F0003AC6371740001307778126073AE837275B
:10590000104002EC13070760B8C33247F8C34247A0
:10591000B8C75247F8C76247B8CB7247F8CB3707CA
:10592000100023A807007D17D8CB114798CF056139
:105930008280B7070300370701088D071CC397A8AB
:1059400000009388284A832707089306070823A0A6
:10595000F80013F84700E30808FE8BB7370C9DC723
:10596000232005000BC8E6E20BC5F6E402178B36D0
:10597000087C558F82170B35057C98E1C98F1CE296
:10598000B70701083707050098C3828085471CC107
:1059900023B0050023300600E5B75971A2F0A6EC4C
:1059A000CAE8CEE4D2E056FC86F45AF85EF462F01F
:1059B000EFF09FC9B717000803A447B183A747B406
:1059C0002549B707000883A44709370A1F00B719FC
:1059D0000008854A1B170901218F33774701398C4D
:1059E000012423AA89B023A289B430080C086800D6
:1059F000EFF03FF4B2478DEF93F7F4008527BB87B4
:105A000027019B970701A18FB3F747013D8C012424
:105A100023AA89B023A289B4A6700674E6644669F5
:105A2000A669066AE27A427BA27B027C656182807B
:105A30007D39E31159FBCDB7B7670008FC4717A7BD
:105A400000001307273A1CC38BB747149DCBB7063A
:105A50000008BC4201767516F18F1CC3BCC2BC4263
:105A6000370602000906D18FBCC297A7000023ABFE
:105A7000073637360008C1665C4A1CC3F58FEDDF78
:105A80008280370600083C428176F516F58F1CC3EC
:105A90003CC28280B7660008DC4669777D17F98FC3
:105AA000DCC697A7000083A76731373700031307C9
:105AB00007907CCB97A7000083D7C73097A600003C
:105AC000938646323CCF97A7000083B727308BB729
:105AD000075C81279CC27CCF3C4B93C7170093F790
:105AE00017FA93E707029CC23CCB82803767000815
:105AF0005C479166D58F17A600002325F62E5CC75C
:105B00008280376700085C478966D58F17A600003A
:105B1000232AF62C5CC78280011197A7000023A3DB
:105B2000072CB766000822E806EC26E44AE023A228
:105B3000060023A40600DC4617A400001304842AF0
:105B400093F7F7F71CC0DCC6FC461CC0FC461CC023
:105B5000FC461CC0FC461CC0FC461CC0F846BA876C
:105B6000058B15C30BB687240BB7471421E693F7B3
:105B7000F7FC1B1787003D8F13770730B98F1CC0C8
:105B8000FCC6EFF01FF8854614C03767000854C301
:105B90005C47A1643769000893E707085CC714C035
:105BA00014C71C40E58FB9CBE2604264A26402696D
:105BB0000561828089456311B60293F7F7FC93E78C
:105BC00007021B1787003D8F13770730B98F1CC062
:105BD000FCC6EFF03FEC45BF8545E316B6FA93F7F8
:105BE000F7FC93E707011B1787003D8F13770730FA
:105BF000B98F1CC0FCC6EFF07FEF71B78327090196
:105C000001451CC0EFB06FD869BFB7670008B44347
:105C1000370700BF7D17758F012797A60000938671
:105C2000661C98C2B8C3B84323A0060023A007048B
:105C3000D84F13670708D8CF23A0060023A007007A
:105C4000D84F1377F7F798C2D8CF8280411106E476
:105C500022E0EFF07FEC370700088327471517A4F1
:105C6000000013042418F99B232AF71423200400AE
:105C700023280712EFF05FDCB767000837070080C2
:105C8000B8C323200400A260026423A007004101DE
:105C90008280B707000893860710F84A17A600000D
:105CA0001306461493870720799BF8CA2320060021
:105CB00023A807F2D443B7050400CD8E14C2D4C381
:105CC000D8534D8F18C2D8D382803747000897A683
:105CD0000000938626118327C71B9CC2858BE5DFB6
:105CE000232007328327071B93F707FC93E757000E
:105CF0009CC22328F71A85472320F7328280B736C3
:105D0000000817A700001307E70D9C561CC393F764
:105D10000710E5DF82804111514506E4EFB0EFC680
:105D2000B7070008414723A0E712A260054797A6DE
:105D3000000023A9E60A23ACE7104101828041114B
:105D400006E497A700009387E70923A00700370719
:105D50000008232C071037670008784798C3EFF036
:105D6000FFEEA26041016FF01FFB3746000897A6C7
:105D700000009386260705475C429CC29D8BE39DED
:105D8000E7FE8280854717A700001307A705B7061F
:105D900000081CC323AAF616373600088D461C5A85
:105DA0001CC38BB78724E39CD7FE8547631AF50293
:105DB000B7A70008ED4694C3B7A700088546D4C32B
:105DC000B70600029386B6FC94C7B7060040FD16DE
:105DD000D4C7C1471CC337070008232AF71682809F
:105DE000B7A7000823A00700C1BF8280374700087B
:105DF000B73700089C438326071997A700009387AD
:105E000067FE94C30327471998C382803747000869
:105E1000232007328327071B93E7070297A600007A
:105E200023A2F6FC2328F71A85472320F732828025
:105E300037670008B70708002324070285077CCBD3
:105E400097A7000083A787F7B736000393860690CD
:105E5000FCCA97A7000083D7E7F617A60000130631
:105E600066F8BCCE97A7000083B747F68BB7075CF0
:105E700081271CC2FCCEBC4A93C7170093F717FAC0
:105E800093E707021CC2BCCA5C4793C6B7308BB607
:105E9000063CB58F1CC25CC71C4BB766000893F765
:105EA00007F01CCB85471CC25CC35C4793E707081F
:105EB0001CC25CC721679C4A1CC2F98FEDDF82803F
:105EC0008567376700089387572F7CC397A6000024
:105ED000938646F123A00600B707000823AA070E01
:105EE000B7470008985B7D761306F65F718F98C2FE
:105EF00098DB93870710B8473706807F7D16718F30
:105F000098C2B8C782809D6717A60000130686ED69
:105F1000938717C81CC2376700087CC3374700083F
:105F2000930507189C49B70600063705001FBD8E6C
:105F3000E98EB58F81279CC9B70703009387370384
:105F40001CC2B706000823AAF60E1C5BFD769386DA
:105F5000F6BFF58F8566938606A0D58F1CC21CDB25
:105F6000130707103C47B7068080D58F1CC23CC77B
:105F70008280011126E406EC22E84AE0B7470008D7
:105F800023A0075423A8075E23A0076A3747000809
:105F900097A40000938404E58327C73F9CC0EDFFCE
:105FA0001C5B93F647FD94C014DB3E8413F9170085
:105FB000EFF01FF1EFF02FF4B706000803A7461823
:105FC000B73700081367170098C023A2E61803A785
:105FD000474498C0098B65DFB707010837070400FD
:105FE00098C3B7460008985AE26033468700137694
:105FF0000602318F33468700218A318FB3478700ED
:10600000898BB98FF99BB3E727019CC09CDA138772
:10601000065085473CC3426413870658A264026950
:106020003CDB938606689CD205616FF0DFED397129
:1060300026F456E406FC22F84AF04EEC52E8B74744
:10604000000823A0075423A8075EAA8A23A0076A92
:106050003747000897A400009384C4D88327C73F1C
:106060009CC0EDFF1C5BB70900083E8913F41700C4
:1060700093F747FD9CC01CDBEFF09FE40545EFF074
:106080007FD0938609089842B707200037067F0023
:10609000B98FF18F3D8F0127B707001FB98F3706E2
:1060A000007FF18F3D8F012798C098C2DC4656854E
:1060B0000BBA2708C59B9CC0DCC6EFF02FE883A76E
:1060C00089183737000893E717009CC023A4F918F4
:1060D000832747449CC0918BE5DF63010A0437079F
:1060E000000893060708DC4613070718ED9B9CC0C1
:1060F000DCC61C4793E717009CC01CC73737000855
:10610000832747449CC0918BE5DF3707000883272E
:10611000C70893E747009CC02326F708EFF0FF87E6
:10612000B70701083707040098C30145EFF09FC582
:10613000374700081C5BE270E269B3C6270193F69B
:106140000602B58FB3C62701A18AB58F33C92701CF
:1061500013792900B3C72701F99BC18F9CC01CDBB1
:10616000930607508547BCC2427493060758A27431
:106170000279426AA26ABCDA130707681CD321615C
:106180006FF07FD879714AE84EE452E006F422F0CD
:1061900026ECB747000823A0075423A8075EAA8966
:1061A0002E8A23A0076A3747000817A900001309A1
:1061B00069C38327C73F2320F900E5FF1C5BBE842A
:1061C00013F4170093F747FD2320F9001CDBEFF0D1
:1061D0003FCF0545EFF01FBBB707000803A7C70B6C
:1061E00063180A00FD77FD177D8F89675D8F21A8F1
:1061F00085476317FA00F977FD177D8F8567FDB72F
:1062000089476304FA0E2320E90003270900B70732
:10621000000823AEE70A631C0A0C374700085C47F6
:1062200093E707082320F9005CC7EFF08FEAB70770
:10623000000883A7C71893E6174063160A0093F770
:10624000F7BF93E6170085476387F900BD3913F759
:10625000F6FE63E4370113E706012320E900B707E0
:10626000000823A6E7183737000883274744232070
:10627000F900A18BFDDBB749000883A7C9003707E8
:106280000400014593F7F7F72320F90023A6F9004E
:10629000B707010898C3EFF0FFAE83A70903A27008
:1062A000026A33C7970013770702B98F33C7970085
:1062B000218BB98FBD8C8988A58FF99BC18F232035
:1062C000F90023A8F9021387095085473CC31387B7
:1062D000095802743CDB93890968E264426923A08F
:1062E000F902A26945616FF01FC28D6701B74E8543
:1062F000EFF02FD32DBF8567850717A70000232355
:10630000F7AE370700082320F7502320F754828088
:1063100099472300F50017A700002325F7AC37079E
:1063200000082324F720B70701083707040098C3A3
:1063300082809307002F17A700002329F7AA93074D
:10634000400617A700002325F7AA172700000327F8
:1063500067E63D4697A7000023A8C7A89B564700BD
:1063600097A7000023A8D7A81307F0027A078BB7D6
:10637000067CB357F70217A700002331F7A41307D1
:10638000A00F3B07D70293064006B387C7023B57CF
:10639000D7020B37077C97A6000023B5E6A2930629
:1063A000803E3307D702B3D7E70217A70000233F89
:1063B000F7A06FF0FFA7411106E4EFF0CF817D3524
:1063C0001375F50FA54763EFA712172700001307F2
:1063D00067AC8B47A744BA97828737171412B70761
:1063E00000084D0798C33717040C13073750D8C35C
:1063F00037070506050798C737170708130727B09B
:10640000D8C737170F0A130797E098CB371716002E
:106410001307D710D8CB23AC070013070010D8CF31
:10642000376713021307475798D32147D8D3372725
:1064300051761307873098D71147D8D7E1A037177F
:106440000708B7070008130797D098C33707050652
:106450001307B720D8C3370704141307071098C7CA
:10646000371703151307C7E0D8C737170F0A1307E5
:10647000372198CB371711005907D8CB23AC070029
:1064800013070010D8CF375713821307477698D3D6
:106490003737516723A207021307870269BF3717EF
:1064A0000708B7070008130797B098C33707000518
:1064B00013076720D8C33707040C1307D71098C7F2
:1064C00037170315130747A1D8C73717111013073C
:1064D000372198CB37170F001307E760D8CB23ACD1
:1064E000070013070010D8CF37677531130747022D
:1064F00098D32147D8D3373747261307875198D7E2
:1065000023A60702A260410182803717060CB70755
:1065100000081307B78098C337170D071307479074
:10652000D8C341671307275098C737170A111307B5
:1065300037E0D8C73717140F1307076198CB371701
:10654000150013072731D8CB23AC07001307001021
:10655000D8CF370784711307275398D31947D8D357
:10656000373710761307574298D72147F9B53717B1
:106570000B08B7070008130767D098C3370701094E
:1065800013077740D8C3370705141307C72098C7E8
:1065900037170015130737E0D8C737170F0A130747
:1065A000372198CB371711005907D8CB23AC0700F8
:1065B00013070010D8CF375713821307477698D3A5
:1065C0003737516723A2070213078720ADB5371766
:1065D000060BB70700081307879098C33707000218
:1065E00013077710D8C33707050C1307D74098C790
:1065F0003717141313073750D8C737170A1613075E
:10660000271198CB37170F003907D8CB23AC0700D9
:1066100013070010D8CF377713281307475698D39E
:106620003787157623A207021307073229B53717D4
:106630000608B7070008130797B098C33707040286
:1066400013071770D8C33707000C1307D75098C724
:106650003707151313074731D8C73717111013071A
:10666000672198CB37170F001307E7A0D8CB23ACCF
:10667000070013070010D8CF375713821307476757
:1066800098D33737157623A207021307072865B377
:1066900037170B07B70700081307C79098C33707CA
:1066A000050413078760D8C33707020E1307D730D6
:1066B00098C737070A1113070710D8C73717130FE2
:1066C0001307476198CB371715004907D8CB23AC80
:1066D000070013070010D8CF374701861307275349
:1066E00098D31D47D8D33727017613075734ADBD4C
:1066F000828037677463B747000813071737D8C716
:1067000037070014F8C30D47F8D7B7069C971387CF
:10671000071034C7B71604819386064094C3B706A2
:106720006A0023A807028506D4DBB706020094DFBF
:10673000B716200093860607B4CBB706510023A0F6
:1067400007069386C6024166F4D313063604938681
:106750000708B0CA3706730323AA070C13060604FA
:10676000F0CE37068000B0D2B716010A93860661D4
:1067700014C3B70603009386464154C3B706040307
:106780009386864014C78D66910654C7B7060205E6
:106790009386664014CBB70601019386363054CBFE
:1067A0009306305014D3B786850413870718938651
:1067B000263014CBB70607009386261054CBB73685
:1067C000C1079386161214CF9306100254CFB70652
:1067D00040C0E10614D3B706FE009386F60F54D3EB
:1067E000B706008014D79306102C14DB854634C3FB
:1067F0000966B70514001306F6F174C39385757026
:106800001387072010C34CC323A40720B705001F1C
:106810004CC710CB37060F051306565050CB370622
:1068200006061306566010CF1306606050CF11663F
:106830009305F6F30CD3B7050505938555504CD356
:106840000CD7B7251F00938555F04CD7B705010726
:10685000938585702CC323A20724130656F830CBEA
:106860001306000270CB370600101306860A70CF9D
:1068700070D370D723A0073023A2073023A6073098
:106880001387073014D323A60736138707404546DE
:1068900010C3196650C310C71387074814CB9D480F
:1068A000232A17011308A0060565232C07011305E9
:1068B00075E0B705A80148CF9385851A0CD350DB46
:1068C00010DF1387075034C323221705232407053D
:1068D00068C72CCB70D330D71387075834DB232AF3
:1068E0001707232C070768DF938707608CC3828014
:1068F000B7470008094798DB3707400061079386D0
:10690000071898D237A70008232A0700376774634F
:1069100013071737D8C737070008F8C38280B7476F
:106920000008370740C023A80702610723A0E71A21
:1069300005677D17B7A60008D8CA376774631307C1
:106940001737D8C737070014F8C38280B747000845
:1069500098439797000023A7E7488B36C7348547AD
:10696000959FBB57F5401B57E70189463B87E6409B
:1069700093F7F70FBBD7E74093F7F70F1B86B7FFE7
:106980001147636EC71A17170000130727538B4769
:10699000C754BA97828737075100B7470008650781
