:020000040000FA
:10C0000015A8010043534B5943534B5900000000FE
:10C010000000000000000000000000000000000020
:10C020000000000000000000000000000000000010
:10C0300034C0008073104030731040342145733099
:10C0400005309791010093816167F322007C37836B
:10C050004000336353007310037CF3220030697394
:10C060007D33B3F262000963B3E262007390023081
:10C07000B70280FEFD3273230030B3735300B70262
:10C080008000B3E3530073900330170500001305DD
:10C09000650785454D8D73105530178102001301DA
:10C0A0006111176500001305A5640295A142732371
:10C0B000003033635300731003301765000013051D
:10C0C000E55E029501A000000000000000000000F5
:10C0D0000000000000000000000000000000000060
:10C0E0000000000000000000000000000000000050
:10C0F0000000000000000000000000000000000040
:10C100006F0000486F00C0476F0080476F004047D6
:10C110006F0000476F00C0466F0080466F0040020E
:10C120006F0000466F0080176F0080456F0080250C
:10C130006F0000456F00C0446F0080446F004044B2
:10C1400073100134174102001301C106130181F677
:10C1500016E41AE81EECF322103416E5F322003040
:10C1600016E906E02AF02EF432F836FCBAE0BEE416
:10C17000C2E8C6ECF2F0F6F4FAF8FEFC357102A063
:10C1800006A40AA80EAC12B016B41AB81EBCAAA017
:10C19000AEA4B2A8B6ACBAB0BEB4C2B8C6BC72A1A6
:10C1A00076A57AA97EAD130181FDF32200C216E0C7
:10C1B000F32210C216E4F322800016E8F322900066
:10C1C00016ECF322A00016F0017157703000270022
:10C1D00001020961270401020961270801020961BE
:10C1E000270C0102097197630000938343458293F2
:10C1F000577030000700011209610704011209613C
:10C20000070801120961070C01120961836201002C
:10C21000036381008363010157F06280572000327D
:10C2200073908300836381017390930083630102A1
:10C230007390A300130181020220A2204221E22177
:10C240000232A2324233E2330625A6254626E626EE
:10C250000637A6374638E6380A2EAA2E4A2FEA2F86
:10C260000D61CA6273900230AA62739012348260C8
:10C27000A2624263E2630275A2754276E2760667C5
:10C28000A6674668E668067EA67E467FE67F1301BF
:10C2900081097321003473002030010073100134D0
:10C2A00017410200130101F1130181F616E41AE8A7
:10C2B0001EECB712202083A34200F322101416E5CF
:10C2C0001EE906E02AF02EF432F836FCBAE0BEE4AD
:10C2D000C2E8C6ECF2F0F6F4FAF8FEFC357102A002
:10C2E00006A40AA80EAC12B016B41AB81EBCAAA0B6
:10C2F000AEA4B2A8B6ACBAB0BEB4C2B8C6BC72A145
:10C3000076A57AA97EAD93F3F33F8E039D429763A2
:10C3100000009383C3328293D27513F5F53FB712B1
:10C32000202023A2A2000220A2204221E2210232E8
:10C33000A2324233E2330625A6254626E6260637F4
:10C34000A6374638E6380A2EAA2E4A2FEA2F0D6164
:10C35000AA62739012148260A2624263E263027561
:10C36000A2754276E2760667A6674668E668067EAC
:10C37000A67E467FE67F1301810973210034730096
:10C38000201001007310013417410200130181E2F3
:10C39000130181F616E41AE81EECF322103416E5B8
:10C3A0001EE906E02AF02EF432F836FCBAE0BEE4CC
:10C3B000C2E8C6ECF2F0F6F4FAF8FEFC357102A021
:10C3C00006A40AA80EAC12B016B41AB81EBCAAA0D5
:10C3D000AEA4B2A8B6ACBAB0BEB4C2B8C6BC72A164
:10C3E00076A57AA97EAD130181FDF32200C216E085
:10C3F000F32210C216E4F322800016E8F322900024
:10C4000016ECF322A00016F00171577030002700DF
:10C41000010209612704010209612708010209617B
:10C42000270C0102097197630000938343218293D3
:10C4300057703000070001120961070401120961F9
:10C44000070801120961070C0112096183620100EA
:10C45000036381008363010157F06280572000323B
:10C46000739083008363810173909300836301025F
:10C470007390A300130181020220A2204221E22135
:10C480000232A2324233E2330625A6254626E626AC
:10C490000637A6374638E6380A2EAA2E4A2FEA2F44
:10C4A0000D61AA62739012348260A2624263E263F9
:10C4B0000275A2754276E2760667A6674668E66868
:10C4C000067EA67E467FE67F130181097321003434
:10C4D0007300203073100134971200009382820E93
:10C4E000938282EF23B0120023B4220023B83200DB
:10C4F00023BC420023B0520223B4620223B872026A
:10C5000023BC820223B0920423B4A20423B8B20451
:10C5100023BCC20423B0D20623B4E20623B8F20639
:10C5200023BC020723B0120923B4220923B832091D
:10C5300023BC420923B0520B23B4620B23B8720B05
:10C5400023BC820B23B0920D23B4A20D23B8B20DED
:10C5500023BCC20D23B0D20F23B4E20F23B8F20FD5
:10C560007325103423BCA20E7325003023B0A21013
:10C5700016852A819765000093856556829501008E
:10C5800091BF00000000000000000000000000005B
:10C59000000000000000000000000000000000009B
:10C5A000000000000000000000000000000000008B
:10C5B000000000000000000000000000000000007B
:10C5C000000000000000000000000000000000006B
:10D5C0000000000000000000D20900000300760007
:10D5D00000000101FB0E0D0001010101000000012E
:10D5E0000000012F6D656469612F63766974656B56
:10D5F0002F6D617274696E2E7875616E2F616C6922
:10D600006F732F6D6172735F616C696F732F636FDE
:10D610006D706F6E656E74732F6376695F6D6D6686
:10D620005F73646B2F636869705F6376313831783C
:10D630002F7372632F7379730000766563746F7252
:10D64000732E53000100000000090240C100800059
:10D650000000000329010301090400010302090875
:10D660000001030109040001030109020001030193
:10D67000090200010302090200010301090400017B
:10D680000301090200010301090400010302090268
:10D690000001030109020001030109020001030165
:10D6A000090200010301090200010301090200014E
:10D6B000030109020001030109020001030109023B
:10D6C0000001030109020001030109020001030135
:10D6D000090200010301090200010302090200011D
:10D6E000030109020001030109020001030109020B
:10D6F0000001030109020001030109020001030105
:10D7000009020001030109020001030109020001ED
:10D7100003010902000103010902000103010902DA
:10D7200000010301090200010301090200010301D4
:10D7300009020001030109020001030109020001BD
:10D7400003010902000103010902000103010902AA
:10D7500000010301090200010302090200010301A3
:10D760000904000103010904000103010902000189
:10D770000301090400010301090200010301090476
:10D780000001030109020001030109040001030172
:10D79000090200010301090400010302090200015A
:10D7A0000301090200010301090400010301090446
:10D7B0000001030109020001030109040001030142
:10D7C000090200010301090400010301090200012B
:10D7D0000301090400010302090200010301090811
:10D7E0000001030209020001030109040001030111
:10D7F00009040001030109020001030109040001F9
:10D8000003010902000103010904000103010902E7
:10D8100000010301090400010302090200010301E0
:10D8200009040001030109040001030109040001C6
:10D8300003010908000103010904000103010904AF
:10D8400000010301090400010301090400010301AF
:10D850000904000103020904000103010902000197
:10D860000301090200010301090200010301090289
:10D870000001030109020001030109020001030183
:10D88000090200010301090200010301090200016C
:10D890000301090200010301090200010301090259
:10D8A0000001030109020001030109020001030153
:10D8B000090200010301090200010301090200013C
:10D8C0000301090200010301090200010302090228
:10D8D0000001030209020001030109020001030221
:10D8E0000904000103010902000103010904000108
:10D8F00003010902000103010902000103010902F9
:10D9000000010301090200010301090200010301F2
:10D9100009020001030109020001030109020001DB
:10D9200003010902000103010902000103010902C8
:10D9300000010301090200010301090200010301C2
:10D9400009020001030109020001030209020001AA
:10D950000301090400010301090400010308090689
:10D960000001030109040001030209080001030189
:10D970000904000103010902000103010902000179
:10D980000302090200010301090400010302090462
:10D990000001030109040001030109020001030160
:10D9A000090200010301090200010301090200014B
:10D9B0000301090200010301090200010301090238
:10D9C0000001030109020001030109020001030132
:10D9D000090200010301090200010301090200011B
:10D9E0000301090200010301090200010302090207
:10D9F0000001030109020001030109020001030102
:10DA000009020001030109020001030109020001EA
:10DA100003010902000103010902000103010902D7
:10DA200000010301090200010301090200010301D1
:10DA300009020001030109020001030109020001BA
:10DA400003010902000103010902000103010902A7
:10DA500000010301090200010301090200010301A1
:10DA60000902000103010902000103020902000189
:10DA70000301090400010302090200010301090274
:10DA80000001030109080001030309020001030169
:10DA90000902000103020904000103010904000155
:10DAA0000302090400010301090200010301090244
:10DAB0000001030109020001030109020001030141
:10DAC000090200010301090200010301090200012A
:10DAD0000301090200010301090200010301090217
:10DAE0000001030109020001030109020001030111
:10DAF00009020001030109020001030109020001FA
:10DB000003010902000103010902000103010902E6
:10DB100000010301090200010302090200010302DE
:10DB200009020001030109020001030109040001C7
:10DB300003010902000103010902000103010902B6
:10DB400000010301090200010301090200010301B0
:10DB50000902000103010902000103010902000199
:10DB60000301090200010301090200010301090286
:10DB70000001030109020001030109020001030180
:10DB80000902000103010902000103020902000168
:10DB90000301090400010301090400010308090647
:10DBA0000001030109040001030109080001030148
:10DBB0000904000103010902000103010902000137
:10DBC0000302090200010301090400010301090223
:10DBD0000001030109020001030109020001030120
:10DBE0000902000103010902000103010902000109
:10DBF00003010902000103010902000103010902F6
:10DC000000010301090200010301090200010301EF
:10DC100009020001030109020001030109020001D8
:10DC200003020902000103010902000103010902C4
:10DC300000010301090200010301090200010301BF
:10DC400009020001030109020001030109020001A8
:10DC50000301090200010301090200010301090295
:10DC6000000103010902000103010902000103018F
:10DC70000902000103010902000103010902000178
:10DC80000301090200010301090200010301090265
:10DC9000000103010902000103010902000103025E
:10DCA0000902000103010904000103010904000144
:10DCB0000301090200010301090400010301090233
:10DCC000000103010904000103010902000103012D
:10DCD0000904000103010902000103010904000114
:10DCE0000302090200010301090200010301090402
:10DCF00000010301090400010301090200010301FD
:10DD000009040001030109020001030109040001E3
:10DD100003010902000103010904000103020902D1
:10DD200000010301090800010303090200010301C6
:10DD300009040001030109040001030109020001B3
:10DD400003010904000103010902000103010904A0
:10DD5000000103010902000103010904000103029B
:10DD60000902000103010904000103010904000183
:10DD7000030109040001030109080001030109046A
:10DD8000000103010904000103010904000103016A
:10DD90000904000103010904000103020904000150
:10DDA0000301090200010301090200010301090244
:10DDB000000103010902000103010902000103013E
:10DDC0000902000103010902000103010902000127
:10DDD0000301090200010301090200010301090214
:10DDE000000103010902000103010902000103010E
:10DDF00009020001030109020001030109020001F7
:10DE000003010902000103010902000103010902E3
:10DE100000010302090200010302090200010301DB
:10DE200009020001030109040001030109020001C4
:10DE300003010902000103010902000103010902B3
:10DE400000010301090200010301090200010301AD
:10DE50000902000103010902000103010902000196
:10DE60000301090200010301090200010301090283
:10DE7000000103010902000103010902000103017D
:10DE80000902000103020902000103010904000163
:10DE9000030109040001030C090400010301090442
:10DEA0000001030109080001030109040001030145
:10DEB0000904000103010904000103010904000130
:10DEC000030109040001030109040001030109041D
:10DED0000001030109040001030109040001030119
:10DEE0000904000103010904000103010904000100
:10DEF00003010904000103010904000103010904ED
:10DF000000010301090400010301090400010301E8
:10DF100009040001030109040001030109040001CF
:10DF200003010904000103010904000103010904BC
:10DF300000010301090400010301090400010301B8
:10DF4000090400010301090400010301090400019F
:10DF5000030109040001030109040001030109048C
:10DF60000001030109040001030109040001030188
:10DF7000090400010301090400010302090400016E
:10DF8000030109020001030209020001030109085B
:10DF900000010307090400010902000001012A0031
:10DFA00000000200CCDF00800801C8D5008040C11D
:10DFB00000800000000082C500800000000010E02A
:10DFC000008070E00080B1E000800180011100104D
:10DFD0000611011201030E1B0E250E130500000091
:10DFE0002C00000002009EDF0080080000000000FE
:10DFF00040C100800000000042040000000000005A
:10E000000000000000000000000000000000000010
:10E010002F6D656469612F63766974656B2F6D611F
:10E020007274696E2E7875616E2F616C696F732FD3
:10E030006D6172735F616C696F732F636F6D706F69
:10E040006E656E74732F6376695F6D6D665F736462
:10E050006B2F636869705F6376313831782F737224
:10E06000632F7379732F766563746F72732E530009
:10E070002F6D656469612F63766974656B2F6D61BF
:10E080007274696E2E7875616E2F616C696F732F73
:10E090006D6172735F616C696F732F736F6C7574F0
:10E0A000696F6E732F6376313831785F626F6F748A
:10E0B00000474E5520415320322E33350041610038
:10E0C00000007269736376000157000000057276E4
:10E0D0003634693270305F6D3270305F613270306B
:10E0E0005F663270305F643270305F633270305F11
:10E0F000763070375F7A66683170305F7A76616D3E
:10E100006F3070375F7A766C737365673070375F26
:10E11000787468656164633270300008010A0B002E
:10E120009767010083B7072F4111328806E4AA8858
:10E130002E87886F3686976701009387A723630B26
:10E140000800C686976501009385C523EF00400946
:10E15000EF10104D974701009387477A3E88D5B757
:10E160004111B286014606E4EFF09FFB000000007B
:10E17000000000000000000000000000000000009F
:10E1800041112946814506E4EF008073A260012514
:10E190004101828013000000130000001300000002
:10E1A0004111A946014606E4EF00806AA2600125FC
:10E1B000410182800000000000000000000000001B
:10E1C0005D711303810236F49A8606EC0B57F1FE5B
:10E1D000C2E0C6E41AE4EF00A07DE26061618280E3
:10E1E0005D712A8E176501000335C52213030102F4
:10E1F0000B56D1FC2E869A86F28506EC0B57F1FE63
:10E20000C2E0C6E41AE4EF00A07AE26061618280B5
:10E2100000000000000000000000000000000000FE
:10E220009D4763F0C702B367B5009D8B9D46B9E774
:10E2300018619C616314F70461162105A105E3E9E7
:10E24000C6FE9307F6FF0DCA83C605000347050007
:10E2500013861700FD158547631DD70013000000C6
:10E26000638CC7000B47F58085078BC6F580E309F3
:10E27000D7FE3B05D7408280014582809307F6FF99
:10E28000E1B7000000000000AA86133706010DE385
:10E290009377F500414889CFB307F840D7F22700BC
:10E2A00007800512969533065640278006029696FB
:10E2B000D7722600078005129695330656402780B0
:10E2C0000602969675F682800000000000000000AD
:10E2D00063F4A502B387C5006370F5029307F6FFE8
:10E2E00055CAFD56130000000BC7F5800B57F5000B
:10E2F000FD17E39BD7FE8280FD4763E1C7022A87B3
:10E300001308F6FF51CE81470BC6F580BE860B562B
:10E31000F7008507E31AD8FE82800100B3E6A50066
:10E320009D8ABDEA130306FE137303FE1303030263
:10E33000B3086500AE872A8703B8070093870702F2
:10E3400013070702233007FF03B887FE233407FFB4
:10E3500003B807FF233807FF03B887FF233C07FFF5
:10E36000E39CE8FC137886019A959377F601630A9B
:10E3700008029D480BC8D5600B58D760A1063388AA
:10E38000D740E3E908FFE117E19BA1071D8A3E970B
:10E39000BE95BDB7828001001308F6FF2A87A5B796
:10E3A00082803E86B1BF0000000000000000000037
:10E3B0003D432A876371C3029377F700C1E3BDE150
:10E3C000937606FF3D8ABA960CE30CE74107E36DAE
:10E3D000D7FE11E28280B306C3408A06970200008E
:10E3E00096966780A6002307B700A306B70023060A
:10E3F000B700A305B7002305B700A304B7002304A3
:10E40000B700A303B7002303B700A302B70023029A
:10E41000B700A301B7002301B700A300B700230092
:10E42000B700828093F5F50F93968500D58D93966E
:10E430000501D58D93960502D58D59B79396270082
:10E440009702000096968682E78026FA9680C1178A
:10E450001D8F3E96E371C3F89DB700003367B5008A
:10E460001D8B3DE3106194618B1206803343D6000F
:10E47000B3E3620063990302106594658B12068012
:10E480003343D600B3E36200639F030010699469CD
:10E490008B1206803343D600B3E36200639503001A
:10E4A0006105E105C1B70B9303828B12038693F2DA
:10E4B000820F335356001373F30FB3D3560093F305
:10E4C000F30F3305734082800346050083C60500C1
:10E4D000050585056313D60065FA3305D6408280AD
:10E4E0000000000000000000937775002A87B1EF5C
:10E4F0009766010083B606ECFD550100130000008D
:10E500000B468778B377D600B697D18FD58FE3893E
:10E51000B7FE834787FFB306A740A9C7834797FF86
:10E5200095CF8347A7FFB9C78347B7FFA1C303466A
:10E53000C7FF8345D7FF8347E7FF21C2B1C133350A
:10E54000F000369579158280C5D68B47179893765B
:10E550007700FDFB098F1305F7FF8280138596FF77
:10E5600082800100138586FF828001001385B6FF3B
:10E57000828001001385A6FF82801385C6FF8280FA
:10E580001385D6FF8280000000000000000000001C
:10E5900051CEB367B5009D8BA5E39D4763FEC704CD
:10E5A0001C6198616396E708611649C2976801008B
:10E5B00083B8C8E0176301000333C3E013C7F7FF54
:10E5C000C697F98FB3F76700B5E31D4E0DA00100A4
:10E5D00018619461B30717011348F7FFB3F70701F8
:10E5E000B3F767006316D704611629C2A1E32105BA
:10E5F000A105E36FCEFC01000347050083C60500BB
:10E600007D166391E6021DC215C3854731A0010046
:10E61000630EF600850719CB0B47F5808BC6F58096
:10E62000E308D7FE3B05D740828001000145828088
:10E630000347050083C605007D16E387E6FCDDB7CA
:10E6400000000000000000000000000000000000CA
:10E65000B3E7A5009D8B2A8781E79D4763E6C70244
:10E660009307F6FFBE95854819A801008BC6D58093
:10E670001308F6FF8BD61718B1C63E874286B386BD
:10E68000C840BA8765F6828017630100033303D35D
:10E690009768010083B808D31D4E010013000000E5
:10E6A0009461B387660013C8F6FFB3F70701B3F7A9
:10E6B0001701DDF761168B568778A105E362CEFE60
:10E6C00045B701003A96630A0800010013000000F4
:10E6D0000BD01718E39EC7FE8280828000000000E6
:10E6E000411122E426E0AA832E88974801009388EE
:10E6F00078E301001300000042830B4718988BC792
:10E70000E880A18BF5FB1305D002BA876306A70E3C
:10E710001307B0026386E7087D5405808144C9CAA7
:10E720004147B6826384E60EB37F5402254E1B87B1
:10E7300007FD81480145654F1B830700B35E540206
:10E74000812F6369EE020100BA8763DDD70263C9D6
:10E750000806FD5863E8AE006380AE088B175520AD
:10E7600085483E858B4718981B8707FD1B8307004C
:10E77000E37CEEFC1B07F3FB6368EF049B8797FCCD
:10E78000E3C7D7FC63C00806B307A0400B959742C8
:10E7900001C6639B08060CE2226482644101828008
:10E7A0007D54834708000580130823008144ADFA97
:10E7B000130700036380E708A942A946B5B7010023
:10E7C0008B471898FD584DB71B03F3F9E36C6FFAAC
:10E7D0009B8797FA9DBF0100E3D2FFF88B471898FB
:10E7E00061B701009307200223A0F30022854DD6D4
:10E7F0009305F8FF228545B77D54834708007E14B2
:10E8000013082300854421BF2A84DDB713070003C2
:10E81000639AE70003470800130580051377F70D97
:10E820006304A700C14209B783471800C142090821
:10E83000C146DDBD03470800930680051377F70D39
:10E84000E304D7FEA142A146C5B5130000000100B4
:10E8500005476387E600130740026363D70049B5A5
:10E86000411106E4EF10C05DA260D9471CC101450B
:10E87000410182801300000013000000130000001B
:10E880008547630FF6009307400263EBC7002A87B2
:10E8900017650100033505B8B2862E86BA8589B59D
:10E8A000411106E4EF10C059A260D9471CC10145CF
:10E8B00041018280130000001300000013000000DB
:10E8C0008547630FF6009307400263EBC7002A8772
:10E8D00017650100033505B4B2862E86BA8509B5E1
:10E8E000411106E4EF10C055A260D9471CC1014593
:10E8F00041018280000000000000000000000000D4
:10E900001C6A5D715AE886E4A2E026FC4AF84EF4DF
:10E9100052F056EC5EE4328BD1C303A7050B896637
:10E920002E89758F31CF833B0600AA89FD5A83B4A7
:10E930008B0003BA0B008980812463599004014441
:10E9400021A0010063D297048B458A444A864E85F4
:10E95000EF101048050401259B070400E31455FF40
:10E960007D5523380B0023240B00A6600664E27457
:10E970004279A279027AE26A426BA26B616182807B
:10E98000EF20000EF9BF010083370B018A04858F49
:10E990002338FB00C10BC1FF0145E1B7232406006A
:10E9A0000145E1B713000000130000001300000050
:10E9B000417162F36EE786F7A2F3A6EFCAEBCEE7EA
:10E9C000D2E356FF5AFB5EF766EF6AEB32EC36F89D
:10E9D0002A8CAE8D01C53C496384073083A60D0B9C
:10E9E00003970D01858A8B37073C89E693F607204C
:10E9F000E3820668896633F6D70005E203A60D0BAD
:10EA0000B367D70079777D178BA7073C718F239861
:10EA1000FD0023A8ED0A8BB7073C13F78700630AB4
:10EA2000072403B78D016306072413F7A701A9463E
:10EA3000630FD7241C023EE102E902C53E8B82E44B
:10EA400082E882F082EC02F4FD5A6264834704009B
:10EA5000638B073E130750026396E7006F00D06098
:10EA60006388E726A28B8B471488FDFBE267BB0413
:10EA7000F440638A043C6267CA6723349B002330F6
:10EA8000EB002A47A6973EE99B06170036C51D47AF
:10EA90006356D724E380074C03A70D0B8966758F57
:10EAA0002DCF0A6A83398A00033B0A00014993D9B2
:10EAB00029008129634930016F00F04805099B074F
:10EAC0000900E3D137498B452B456E866285EF10EF
:10EAD00030300125E31455FF83A70D0B02E902C571
:10EAE000858B03D70D0189E793770720E38E076EA7
:10EAF0001377070419C36F10800ABE701E74227545
:10EB0000FE645E69BE691E6AFA7A5A7BBA7B1A7C19
:10EB1000FA6C5A6DBA6D7D6182801001EE85628556
:10EB2000EF10107402E902C5E31B051E130B011060
:10EB3000227783C71B00259F3AF4638607308347FB
:10EB4000140013091400A30B0106FD5C02E4014D3F
:10EB500025449304A00205091306A0059B8607FE21
:10EB600036876363D604974601009386A6820BC757
:10EB7000E65436970287010002E4A2658B46199895
:10EB80009B8707FD1B9725002D9F1B171700B99F1B
:10EB90003EE49B8506FD9B870600E370B4FE9B86E2
:10EBA00007FE3687E371D6FC4AEC638E0728230CF8
:10EBB000F1088547A30B01063EE83EF09309810961
:10EBC000814C010013000000C2662A4513762D0017
:10EBD0001B8726008B16C74293754D089B071500AF
:10EBE00036E8B2E02EFC36874A64BE8691E522669E
:10EBF0003B09E640E34420158347710713060B01E8
:10EC0000638007409307710705042330FB008547A5
:10EC10002334FB0022E936C59D4763DFD73C630BF5
:10EC2000044483A70D0B0967F98F638C07420A69B7
:10EC300083348900033A0900014489808124634AAE
:10EC400090006F00D031010005049B070400E3D859
:10EC500097308B458A446E866285EF1070170125C8
:10EC6000E31455FF95BD136D0D0183470900012D78
:10EC7000DDB5EE856285EF10A00919C16F00D07671
:10EC800083D70D01A94613F7A701E315D7DA039738
:10EC90002D01E34107DA03A70D0B058B09E793F775
:10ECA0000720E38E076A1E74C2766266BE70FE6439
:10ECB0005E69BE691E6AFA7A5A7BBA7BFA6C5A6D33
:10ECC000EE856285BA6D1A7C7D616F0070780100F7
:10ECD000E267BB04F440E38404E671BB410B89BDE9
:10ECE000EF100052E5B942744AECA30B01068B49C0
:10ECF0008478E38D0952E3845C43668681454E85C2
:10ED0000EF201040E3030566BB0735413EF022F8D3
:10ED1000814C82778346710733A7FC008B97EC40C8
:10ED20001B87170081270B97D7403AE871BDC27740
:10ED300085464AEC0BC78758A30B010636E83EF818
:10ED40008547230CE1083EF09309810995BD936442
:10ED50000D014AEC8124C27693F7040213878600E2
:10ED6000E380072A806285473AF8A30B0106010079
:10ED700063895C3913F7F4F71B0D0700631204383D
:10ED800063920C3EE396072093F714003EF093093C
:10ED9000C10FC1D393070003A30DF10E8277834601
:10EDA00071079309B10F33A7FC008B97EC401B87C9
:10EDB000170081270B97D7403AE839B583470900F8
:10EDC00013078006E382E744136D0D04012D61B340
:10EDD000136D0D0283470900012DB5BBC277617722
:10EDE00093642D000BC48778134707834AEC3EF8E1
:10EDF000975701009387075FBEE48124231CE10637
:10EE00008947A30B0106ADB7C2764AEC93770D0292
:10EE10000BC7867836F88DE393770D0191EF9377E2
:10EE20000D04E399074E93770D20E38B075AA277E1
:10EE30002300F70019B90100A2771CE3626483473D
:10EE40000400E39907C04A6783A70D0BE319074C39
:10EE500002C579B1834709001307C006E38EE7387E
:10EE6000136D0D01012DC5B993670D014AEC1B8D82
:10EE70000700C27693770D0213878600E385071695
:10EE800080629374FDBF81243AF88147A30B010689
:10EE9000C5B593670D014AEC1B8D0700C2769377C9
:10EEA0000D0213878600E38807109C623E84E3C14D
:10EEB0000712E3875C339374FDF73AF88124E30685
:10EEC000040C010013000000A547E3EA87268547EC
:10EED0003EF08277834671071B04040333A7FC00CE
:10EEE0008B97EC401B87170081270B97D740A30D0A
:10EEF000810E268D9309B10F3AE8F9B1136D0D0813
:10EF000083470900012D81B94A878B471798E38E03
:10EF1000974E9B8607FD3A89814CE361D4C401007A
:10EF20008B4719981B972C00BB0C97019B9C1C00CE
:10EF3000BB8CDC009B8607FDE374D4FE05B18347E0
:10EF40000900136D4D00012D39B11307B00283473D
:10EF50000900A30BE10601B14277834709008B4604
:10EF6000875836E43AF8E3D806BE3B07D0403AE487
:10EF7000C9BF6285EF20C0071C653E85BEECEFF07F
:10EF8000AFD6AAF0AA896285EF2080061869834768
:10EF90000900BAE8E38109BCE30F07BA834607001A
:10EFA00013670D4001270B1DD74275B6136D1D0069
:10EFB00083470900012D45B60347710783470900C0
:10EFC000E31B07B813070002A30BE10669B61001A3
:10EFD000EE856285EF10D02802E902C56311055461
:10EFE0008347710763840774930771073EE285477F
:10EFF0003EE6100A854605443685328B8526410655
:10F000008667C1CBBC1809042330FB008947233431
:10F01000FB0022E936C59D4763D3D77263010476AE
:10F0200083A70D0B0967F98F638807680A69833422
:10F030008900033A090001448980812463499000D2
:10F0400005AF010005049B07040063D397728B454D
:10F050008A446E866285EF10A0570125E31455FFA0
:10F06000A5BC1001EE856285EF10901F02E902C574
:10F070006317054A866763800766BC183EE28947C6
:10F080003EE6130B0111054509449B0615001306C6
:10F090000B01627793070008630AF71C82773B89AC
:10F0A000FC406347202D827736C53E948B59FBF890
:10F0B00022E99D4763D1D7126300044883A70D0B53
:10F0C0000967F98F638F07380A69833489008339A8
:10F0D000090001448980812463499000B1A10100A5
:10F0E00005049B07040063D197448BC589446E8651
:10F0F0006285EF10E04D0125E31455FFF1BA0100E0
:10F10000EA840547E382E7DC09476387E70693095A
:10F11000C10F010013000000937774009387070369
:10F120004E870D808BD7F90965F893F61400ADC2B0
:10F1300093060003638ED7047917FC19999F3EF05C
:10F140008277A38FD9FE83467107BA8933A7FC0063
:10F150008B97EC401B87170081270B97D740268D94
:10F160003AE89DB40547E380E7240947EA84E39041
:10F17000E7FA01001300000026679309C10F0100A0
:10F180009377F4008B47F78011808BD7F9096DF8DE
:10F19000FC19BB8737413EF0268D82778346710785
:10F1A00033A7FC008B97EC401B87170081270B9738
:10F1B000D7403AE811BC1001EE856285EF10500A85
:10F1C00002E902C5631D0534027485474EE222E65A
:10F1D00022E93EC5100A93774D0099C7A26742679E
:10F1E0003B89E7406343202BA267C26633A7D70061
:10F1F0008B97E6422277B99F3EF425C483A70D0B77
:10F200000967F98F638407308A6983B4890003B979
:10F21000090001448980812463499000E5AE010022
:10F2200005049B07040063D7973E8B4589446E868F
:10F230006285EF10E0390125E31455FF71B8100124
:10F24000EE856285EF10D00102E902C56319052C35
:10F25000A267C26633A7D7008B97E6422277B99F91
:10F260003EF402C5130B01106FF02FFEA267426738
:10F270003B89E740E35420E3C147E3DA2711973B9A
:10F280000100938B2B29414A4EFC01A89B072500C6
:10F29000410B3A854139635F2A071B07150041047A
:10F2A0008B5B4BF922E93AC59D47E3D1E7FE630545
:10F2B000041A83A70D0B0967F98F8DCF0A6B0334EE
:10F2C0008B0083340B00814909800124634980004D
:10F2D00095AA010085099B87090063D587168BC510
:10F2E00034456E866285EF10A02E0125E31455FF8C
:10F2F0006FF08FFE1001EE856285EF10607602E9F7
:10F3000002C5631E0520413985470144130B0110D6
:10F31000E3452AF9E27913070B014A948B5B2BF939
:10F3200022E93EC59D4663D1F6566301047C83A75E
:10F330000D0B0967F98F638C07700A6983348900A4
:10F34000033A09000144898081246348900041AF59
:10F3500005049B07040063D497788B458A446E8626
:10F360006285EF10E0260125E31455FF6FF0CFF61C
:10F37000C14763D02777973B0100938BAB19414A74
:10F3800009A801009B062500410B3A854139635DC0
:10F390002A071B07150041048B5B4BF922E93AC58C
:10F3A0009D47E3D1E7FE49C883A70D0B0967F98F95
:10F3B00085CF0A6B03348B0083340B00814C0980AA
:10F3C0000124634880008DA0850C9B870C0063DDC1
:10F3D00087048BC594456E866285EF10601F0125FA
:10F3E000E31455FF6FF04FEF1001EE856285EF10CB
:10F3F000206702E902C563140512413985460144BC
:10F40000130B0110E3472AF913070B014A948B5B96
:10F410002BF922E936C59D4763C6D72C85261306EE
:10F4200007013A8B49B10100CA670A04410B3384D2
:10F43000874022E941F0010085460145130B011088
:10F44000B1B70100CA670A04410B3384874022E93F
:10F45000E31704E61300000085470145130B011074
:10F4600015BD1001EE856285EF10805F02E902C5CF
:10F470005DE593774D00E38D07DCA26742674A6440
:10F4800010023B89E740E35120D7C1472A4563D9A1
:10F49000276F173A0100130AEA06C1499D4B896C90
:10F4A00009A801009B07250041063A85413963DC24
:10F4B00029191B07150041040B5A36F922E93AC5F0
:10F4C000E3D2EBFE6306041E83A70D0BB3F797018F
:10F4D000638C07140A6B03348B0083340B00014DDB
:10F4E000098001246349800055AA0100050D9B078E
:10F4F0000D0063D5871A8BC5A4456E866285EF1013
:10F50000200D0125E31455FF6FF00FDD1001EE858E
:10F510006285EF10E05402E902C5E30405D483A735
:10F520000D0B6FF0EFDB0100CA678A044109B38459
:10F53000974026E9E39B04B802C525BF4147635BBA
:10F540002763173A0100130AEAFBC14BCEF411A856
:10F550009B072500410B3A85413963DE2B079B074A
:10F56000150041043E873EC50B5A7BF922E99D47B1
:10F57000E3D0E7FE51C883A70D0B0967F98F8DCF44
:10F580000A6B03348B0083340B008149098001240A
:10F590006349800085A0010085099B87090063DB22
:10F5A00087048BC534456E866285EF1060020125A5
:10F5B000E31455FF6FF04FD21001EE856285EF1016
:10F5C000204A02E902C521FD413985470144130B58
:10F5D0000110E3C62BF9A6794A940B5A2BF922E9BC
:10F5E0003EC51D47634FF722410B9B8617003E85A2
:10F5F0006FF08FE0CA670A04410B3384874022E929
:10F6000049F001001300000001458547130B01106C
:10F61000A1B70100CA678A04C109B384974026E9EB
:10F62000E39504BE3DB901001001EE856285EF103F
:10F63000204302E902C5E31405EE41398547014440
:10F640001002E3C829E74A940B5A26F922E93EC57D
:10F650001D47E35BF7B8E30D04BE83A70D0B0967F5
:10F66000F98FE38E07BC0A69833489008339090066
:10F6700001448980812463489000D5AE05049B072E
:10F68000040063D6973E8BC589446E866285EF0081
:10F6900030740125E31455FF6FF00FC4CA670A04E4
:10F6A000410B3384874022E9E31704E21300000092
:10F6B000854701451002DDBB1001EE856285EF1024
:10F6C000203A02E902C5E31C05E4100A854601441C
:10F6D000130B01107DBA0145100A85460144130B36
:10F6E000011045BAE30204AE83A70D0B0967F98F39
:10F6F000E38307AC0A6983348900033A09000144B3
:10F70000898081246349900055AC010005049B0762
:10F71000040063D5972A8B458A446E866285EF0084
:10F72000306B0125E31455FF6FF00FBB8667C5D71B
:10F73000BC183EE289473EE6100A85460944328BF2
:10F740003685A1B2CA678A09B38737413EE9410AC3
:10F75000639A07B402C5130B01106FF06FBDCA673F
:10F760008A044109858F3EE9639407CC21B20100E8
:10F770004A648A044109058C22E9E31A048A100AC2
:10F7800085460145130B011029B263920CF4268DB6
:10F7900002F08277814C8346710733A7FC008B9778
:10F7A000EC401B87170081270B97D7409309C10FA7
:10F7B0003AE86FF06FC193770D01FDE393770D0485
:10F7C0006387072EC27703940700A28763D307EEEF
:10F7D0009307D002A30BF106330480403AF8EA8481
:10F7E00085476FF0EFD893770D01DDE7C276937709
:10F7F0000D0480426383072A0B34043C6FF06FE8EA
:10F8000093F70401DDE3C27693F704048042638B2F
:10F8100007260B34043C3AF88547A30B01066FF02A
:10F820002FD5630F04FA83A70D0B0967F98F638047
:10F8300007FA0A6983348900033A09000144898080
:10F84000812463489000C9AA05049B07040063D57E
:10F85000971C8B458A446E866285EF0070570125A0
:10F86000E31455FF6FF04FA762646FF04FAD4AECA1
:10F870006FF0CFE203B50D0AEF10807F03970D0103
:10F880008B37073C6FF00F979B8617001306070115
:10F890003E853A8B6FF09F80C27780636FF06FDE9A
:10F8A000C2779C633E846FF08FE0C277A30B0106A2
:10F8B0003AF8806385476FF0AFCB17570100130705
:10F8C000E7B04AECBAE4427613770D02930686005D
:10F8D0002DC3006213771D0001CF19C813672D00D7
:10F8E00013060003230CC106A30CF1061B0D070031
:10F8F0009374FDBF812436F88947A30B01066FF08E
:10F900002FC74AECEA846FF00FC54AEC6FF06FD650
:10F9100017570100130707AD4AECBAE46DB74E85DF
:10F92000EFE09FBC9B0705003EF022F8814C6FF092
:10F930004FBE13770D0149CF4277006361BF466820
:10F9400093FB04408146F8192949254A130DF00F0D
:10F9500001A80100B357240363778A023E844E87CF
:10F960009309F7FF8526B37724039B870703A30F2B
:10F97000F7FEE3810BFE83470800E39DD7FCE38B92
:10F98000A7FD636A8A00FC19BB873741C2E83EF0D5
:10F99000268D6FF09F808677E66542E8B389F9404F
:10F9A0003E864E85EFE0DFCA4268B35724038146A6
:10F9B000034718003337E0003A984DB7CA678A0406
:10F9C0004109B384974026E9E39704D26FF0CFFF53
:10F9D000427613770D04004265C70B34043CDDBD4D
:10F9E000EA843AF86FF04FCE03B50D0AEF10406C81
:10F9F00003D70D016FF0CF8F136D0D0283471900F0
:10FA0000012D05096FF02F95136D0D208347190007
:10FA1000012D05096FF02F94CA678A044109858F6B
:10FA20003EE9E39907E06FF0AFDB01009947B3B718
:10FA3000970119490B99FC409B0709003EF03EE8ED
:10FA400022F8975901009389699B6FF06F97100115
:10FA5000EE856285EF10C00002E902C5E31105AC36
:10FA6000100A85460144130B01106FF02FE3CA679B
:10FA70008A044109B384974026E9E39704BE6FF0F6
:10FA80002FFD010093F70420B5CF1374F40F3AF85B
:10FA90008547A30B01066FF0AFAD9376F40F937714
:10FAA0000D200B34047C0B94F6426FF08FBD9377DE
:10FAB0000D20A1C7C27703840700A2876FF02FBF74
:10FAC0001376F40F13770D200B34047C0B14E642ED
:10FAD00011B53287973B0100938BCBA305BA4A64DB
:10FAE0008A044109058C22E9E31A0484100A854638
:10FAF0000145130B01106FF06FDAC2778043A287C4
:10FB00006FF0EFBA0B34047C3AF88547A30B01067B
:10FB10006FF00FA6A2772310F7006FE01FF38BB7EB
:10FB2000D734C5C38A697D5983B4890003BA0900F3
:10FB30000144898081246348900095A805049B07AF
:10FB4000040063D597068B458A446E866285EF0074
:10FB500030289B070500E39327FF6FE0FFF703B50D
:10FB60000D0AEF10E0546FF00F9466F022F8814C0C
:10FB70006FF02F9AB687173A0100130AAA98A9BC0A
:10FB80009B071500173A0100130ACA976DBC32870C
:10FB9000B687973B0100938BEB976FF00FF8FD57FB
:10FBA0003EF46FE09FF5EA846FF06FB24A678A0413
:10FBB000058F3AE9C1092DFB83A70D0B02C56FE044
:10FBC0003FF21001EE856285EF00906902E902C5FF
:10FBD00083A70D0B19C16FE0BFF002C56FE05FF0A6
:10FBE000A2771CC36FE07FE683A70D0B858BC5FB57
:10FBF00083D70D0193F70720DDF303B50D0AFD57F9
:10FC00003EF4EF10E04A6FE05FEFC2768BC7865894
:10FC1000BE8C63D30700FD5C8347190036F83A8930
:10FC20006FE07FF3130000001300000013000000DA
:10FC3000AA87174501000335E57DB2862E86BE856D
:10FC40006FE01FD713000000130000001300000036
:10FC500083D70501130101B103A3050B83D8250147
:10FC600003B805032330814E2E84AC61F59B130746
:10FC700000402338214D231CF1002A899C012811C2
:10FC80002334114E233C914C2334314DB284B68938
:10FC90001ADD231D110142FCAEE43EE43EF03ACAF7
:10FCA0003AD402D8EF10C0382686CE862C004A857A
:10FCB000EFE01FD0AA84634905002C004A85EF00BD
:10FCC0002034FD578B94A7428357810193F7070493
:10FCD00099C78357040193E707042318F4002A7592
:10FCE000EF1000378330814E0334014E0339014D4C
:10FCF0008339814C26858334814D1301014F8280E5
:10FD000000000000000000000000000000000000F3
:10FD10009747010083B70770011122E826E406EC3B
:10FD2000AA842E8499C3B84B21CF0317040193767C
:10FD300087008B37073CB9CE146CB5CA13F6170091
:10FD400011CE10502326040001453B06C04010D4BC
:10FD500091CEE2604264A2640561828013F62700BE
:10FD6000814511E20C504CC40145E5F693F70708B4
:10FD7000EDD3136707042318E4007D55D9BF0100B4
:10FD80003E85EF00E04703170401937687008B3729
:10FD9000073CDDF293F60701A5C2918B95EB146C3D
:10FDA000136787002318E4008B37073CC1FA13F66A
:10FDB000072893050020E303B6F8A2852685EF10F7
:10FDC000203003170401146C8B37073C85BF0100FA
:10FDD0002C6C81CD930744076387F5002685EF00DF
:10FDE000302003170401233C0404146C1377B7FD7F
:10FDF0002324040014E06DB7A5479CC013670704D3
:10FE00002318E4007D55B1B7000000000000000099
:10FE100000000000000000000000000000000000E2
:10FE20004111194506E4EF20A01B0545EF20407E57
:10FE300000000000000000000000000000000000C2
:10FE4000174501000335055D8280000000000000B9
:10FE500000000000000000000000000000000000A2
:10FE600083970501797122F04EE406F426EC4AE806
:10FE700093F687002E84AA89C5EE056713070780CD
:10FE80009445D98F2398F5006352D010386441CB44
:10FE90008BB7073C856683A40900FD8E23A009006B
:10FEA0000C78EDEA014685464E850297FD572A8675
:10FEB0006308F5108357040138640C78918B99C757
:10FEC00014443C6C158E99C33C581D8E81464E855A
:10FED0000297FD576312F50C03A70900831704016D
:10FEE000630E070EF5466305D700D946631ED70E8D
:10FEF000146C7D771307F77FF98F2318F400232400
:10FF0000040014E02C6C23A0990091C993074407C6
:10FF10006385F5004E85EF00B00C233C04040145D9
:10FF2000A2700274E2644269A269456182800100A4
:10FF300003B98501E30509FE84610BB7073C0D8B0E
:10FF400023B02501BB842441814711E39C515CC44B
:10FF500063479000E9B701002A99E35290FC3C60A6
:10FF60000C78A6864A864E858297899CE346A0FE39
:10FF700083570401A270E26493E707042318F40096
:10FF800002744269A2697D5545618280B859E34F88
:10FF9000E0EE71B750681DB7835704017D771307F2
:10FFA000F77F146CF98F8BA7073C05672318F400C3
:10FFB0002324040014E0F98FB1D748E8A1B7010069
:10FFC00083A70900E38807EE75476385E700594773
:10FFD000E390E7FA23A09900014599B77D771307CD
:10FFE000F77F146CF98FD1B793E707042318F40057
:10FFF0007D553DB713000000130000001300000002
:020000040001F9
:10000000011122E826E406EC4AE0AA842E8419C1F4
:100010003C49A9C383170401014995C70327040B71
:10002000058B01E793F7072095CBA2852685EFF096
:100030003FE38327040B2A89858B91E783570401CB
:1000400093F7072095CBE2604264A2644A85026977
:1000500005618280EF00C01A75BF01004870EF1083
:100060002001A2852685EFF0BFDF8327040B2A89B4
:10007000858BF1FBE1B701004870EF106003E2608F
:100080004264A2644A85026905618280130000000F
:1000900035C9011126E49744010083B4A43722E84E
:1000A00006EC4AE02A8499C0BC48A9C3831704011E
:1000B000014995C70327040B058B01E793F7072038
:1000C00095CBA2852685EFF0BFD98327040B2A891B
:1000D000858B91E78357040193F7072085C3E2607E
:1000E0004264A2644A850269056182802685EF0028
:1000F00020116DBF4870EF00B077E1B74870EF0096
:10010000307BF1BF17250100033545289705000016
:10011000938545EF6F00D054000000000000000000
:10012000972500009385053C6F0090531300000055
:100130008327050B858B91E78357050193F70720EC
:1001400081C70145828001004871411106E4EF003A
:100150003072A2600145410182801300000001005D
:100160008327050B858B91E78357050193F70720BC
:1001700081C70145828001004871411106E4EF000A
:100180003073A2600145410182801300000001002C
:10019000011126E41306800B9B84F5FFB384C4028F
:1001A0004AE02E8922E89385040D06ECEF10400BFF
:1001B0002A8401CD6105233004002324240108E8AA
:1001C0001386840B8145EFE0AF9EE2602285426496
:1001D000A264026905618280130000001300000020
:1001E000172501000335851A972500009385852F73
:1001F0006F00104713000000130000001300000000
:10020000397126F4AA841385010406FC22F84AF009
:100210004EEC52E856E4EF00B065BC486398071016
:100220008064170700001307E7EFB8EC9387845347
:100230000D4723A4E45223B8F45223B0045291474B
:100240001CC8214681452328040A23300400233496
:100250000400233C04002320040223240402130589
:10026000840AEFE0EF94972A0000938AAAF6172AEF
:100270000000130A2AFB972900009389A900172977
:100280000000130929051305040A0B5454FF2330F9
:1002900044052334340523382405EF007059806861
:1002A000C167A5071CC8214681452328040A2330BD
:1002B000040023340400233C0400232004022324EC
:1002C00004021305840AEFE0AF8E1305040A0B54F1
:1002D00054FF233044052334340523382405EF002C
:1002E0003055806CB7070200C9071CC821468145FC
:1002F0002328040A2330040023340400233C040090
:1003000023200402232404021305840AEFE04F8A09
:100310001305040A0B5454FF2330440523343405D9
:1003200023382405EF00D0508547BCC84274E270E2
:10033000A2740279E269426AA26A1385010421610A
:100340006F0010571300000013000000130000009E
:1003500079714AE82A891385810326EC06F422F094
:100360004EE452E0EF00D0509724010083B4040221
:10037000BC48D9CF938404529309800B114A9C4402
:1003800080686354F002031704010DC7FD378BB773
:10039000077C850722870B97372121A0831704014B
:1003A00091CB1304840BE31BE4FE806035C4A2846C
:1003B000F9B70100C17785071CC81305040A232873
:1003C000040AEF00F04613858103EF00704E2146CA
:1003D0002330040023340400233C040023200402BF
:1003E0002324040281451305840AEFD07FFC233CBB
:1003F000040423200406233C040623200408A270DE
:1004000022850274E2644269A269026A45618280BF
:100410002685EFF0FFDEB9BF9305802F4A85EF00F8
:1004200030642A8419CD610523300400232444015B
:1004300008E81306002E8145EFD09FF780E0A284E4
:100440003DBF23B0040013858103EF007046B14720
:100450002320F9006DB71300000013000000010015
:10046000138581036F00D0401300000013000000CB
:10047000138581036F00D0431300000013000000B8
:10048000138501046F00D03E13000000130000002C
:10049000138501046F00D041130000001300000019
:1004A00041111385810306E4EF00903CA2601745DB
:1004B0000100033525F6970500009385A5C7410186
:1004C0006F00101113000000130000001300000063
:1004D00017450100033505F4411197050000938588
:1004E00065C806E4EF00D00EA260138581034101C8
:1004F0006F00103C00000000000000000000000041
:100500001D71A2E84EFC5AF086ECA6E4CAE052F84F
:1005100056F45EEC2A8BAE893284EF007024854756
:10052000631EF5009B87F9FF1307E00F6368F70070
:1005300013F7F90F2304E100054939A89306840A4B
:100540004E862C005A85EF10B06AFD572A89630742
:10055000F5062DC10347810081447D5AA94B930ABA
:10056000810021A81C609386170014E02380E70017
:10057000850463F124050BC754815C44FD375CC4DA
:10058000E3D207FE1454BA8522865A8563C4D70085
:10059000E31A77FDEF10D054E31C45FD7D55E6606E
:1005A0004664A6640669E279427AA27A027BE26B2B
:1005B000256182801B850900DDB701008357040196
:1005C0007D5593E707042318F400D1BF1300000002
:1005D0008327060B83160601797122F026EC13F7A8
:1005E000170006F43284AA848BB7063C01E713F7A0
:1005F000072029CF0967F98F91EB8327040BD98E48
:100600000967D98F2318D4002328F40A2685228667
:10061000EFF01FEF8327040B9B040500858B91E708
:100620008357040193F7072081CBA27002742685BB
:10063000E2644561828001004870EF007027A2707B
:1006400002742685E26445618280010048722EE4CE
:10065000EF00102283160401A2658BB7063C59BF38
:10066000011126E49744010083B4C4DA22E84AE089
:1006700006EC2A892E8499C0BC48B9CF0327040B05
:1006800083160401058B8BB7063C01E713F707209F
:1006900035C30967F98F91EB8327040BD98E09675E
:1006A000D98F2318D4002328F40A26852286CA85E8
:1006B000EFF01FE58327040B9B040500858B91E772
:1006C0008357040193F7072081CFE26042640269F7
:1006D0002685A264056182802685EFF07FB279BF0E
:1006E0004870EF00F01CE260426402692685A26453
:1006F000056182804870EF00B017831604018BB744
:10070000063C41BF000000000000000000000000A7
:10071000797122F026EC4AE84EE42E8406F49749DB
:100720000100938929612A89EF10802883B6090185
:1007300005679307F7FD846633848740F198269414
:1007400031807D143204634BE40081454A85EF30EB
:10075000F01783B70901A697630EF5004A85EF10DD
:100760002026A2700274E2644269A26901454561D3
:1007700082800100B30580404A85EF303015FD5777
:10078000630AF502138701051C4383B60901818CB6
:1007900093E414003B8487404A8584E600C3EF104D
:1007A0002022A2700274E2644269A2690545456193
:1007B0008280010081454A85EF30501103B709015D
:1007C000FD46B307E540E3DBF6F893E717001CE7C7
:1007D0009747010083B707551D8D23A8A104BDBF0E
:1007E000F5C5011122E826E42E84AA8406ECEF1058
:1007F000201C833584FF130704FF174501001305F0
:10080000655393F7E5FF3306F700146603380501D7
:10081000F19A6307C81414E685893308D600C9E144
:10082000033304FF8335880097480100938888517B
:1008300033076740033807019A978589630E180FBD
:1008400003338701233C68002338030163880516BE
:1008500093E6170014E71CE29306F01F63E3F60823
:100860008D839B861700033885009B9616008B4569
:10087000D5661BD627408547B397C7000B16D5060C
:10088000B3E70701411610EF0CEB1CE50B57D566DB
:1008900098ED4264E2602685A26405616F10401203
:1008A0008335880085898DE5B69797480100938840
:1008B0006849146A93E51700638C1611106E90EE68
:1008C00014EA0CE78B57F76041BF010082800100FA
:1008D00093E61700233CD4FE1CE29306F01FE3F1DD
:1008E000F6F893D6970011466368D60A93D6670048
:1008F0009B8596039B9515001B8686038E058B466C
:10090000B560AA95C115638FD50C010013000000D6
:100910009066719A63F5C700946AE39BD5FE8C6E6E
:100920000CEF14EB4264E26098E92685A26498EE2D
:1009300005616F10E0080100639305100C6E106AEA
:10094000B69742640CEE90E993E61700E26014E774
:100950002685A2648B57F76005616F106006010061
:100960008589B69789E9833504FF0D8F146F106B65
:10097000AE9714EE90EA13E617009746010083B68F
:10098000E63A10E718E9E3E6D7F083B58104268557
:10099000EFF01FD8FDBD010051466373D602130668
:1009A0004005636DD60493D6C7009B85F6069B95DC
:1009B00015001B86E6068E0599B70100B697D5BDD2
:1009C0009B85C6059B9515001B86B6058E0505BF44
:1009D00018F518F1233C1701233817010CE78B5742
:1009E000F76045BD033885001B5626408547339682
:1009F000C7003366060110E525B701001306401550
:100A0000636CD60093D6F7009B8586079B951500EF
:100A10001B8676078E05E5B513064055636CD60038
:100A200093D627019B85D6079B9515001B86C60785
:100A30008E05F1B59305007F1306E007C9B593E66F
:100A4000170014E71CE2B1B5000000000000000030
:100A50000000000000000000000000000000000096
:100A60001C6A638B071C83D705011D71A2E852F82D
:100A700056F486ECA6E4CAE04EFC5AF05EEC62E85E
:100A800066E46AE013F787002E84AA8A328A2DCBA7
:100A9000986D3DC713F7270083340A003DCF3860B7
:100AA0000C78370B008081490149134B0BC00100C2
:100AB000B3372B01DA868B16F9404E868126568590
:100AC000630C090202976351A01683370A01AA99A1
:100AD0003309A9403385A7402338AA0063010512D2
:100AE000B3372B01DA868B16F94038600C784E86C6
:100AF00081265685E31809FC8BC924F9C1044DBF32
:100B0000A2855685EFF0CFA06317052A835704010D
:100B100083340A0013F7270059F313F717002DEF5A
:100B20000329C4000860370B0080934BEBFF014C96
:100B30008149134BFBFF0100CA8C638A090413F738
:100B40000720630F07124A8D63FE2919CE8C4E8D44
:100B50006A86E285EFD0CFF758441C604E89BB0C03
:100B60009741EA97232694011CE0814903360A0144
:100B70004A9C3309264123382A01630209080329C4
:100B8000C400086083570401CA8CE39A09FA0BCCAD
:100B900034F9C10455B70100014B0145814C0149AD
:100BA000630E09085DC108601C6C33376901CA898E
:100BB0008B19EB4014504E8C63F7A7005C44BB8B41
:100BC000D70063CF3B09634FDC183C600C78668626
:100BD00056858297AA896359A0049B0705003B0BA1
:100BE000FB400545630C0B0283370A01CE9C330999
:100BF0003941B389374123383A01E39309FA014572
:100C0000E6604664A6640669E279427AA27A027BCB
:100C1000E26B426CA26C026D25618280A2855685D2
:100C2000EFF00FBE71D101008317040193E70704B1
:100C30002318F4007D55E9B70145828003B984008B
:100C400083BC0400C104E30B09FE4A86A9456685FE
:100C5000EF00104B6308051405053B0B9541A1B748
:100C6000E6855E86EFD0CFE61C60A2855685DE97CE
:100C70001CE0EFF0EFB84DF9DE87DE898DB701009B
:100C80001C6C63E9A7021C5063E6F90233B73B0111
:100C9000CE868B16EB42BBC6F60238600C786286B5
:100CA0005685BB86F6020297E350A0F82A89B389DD
:100CB00029416DBDB3B729010B99F9424A86E285F6
:100CC000EFD00FE15C441860BB8627414A9754C4BB
:100CD00018E0F1FEA2855685EFF08FB231F5B389A9
:100CE000294169B513F70748E30407E6032904021D
:100CF0000C6C138719009B161900BB8626010D8DFD
:100D00001BD9F6019B0C05003B09D9001B59194062
:100D100066979B861900359D3337E90093F70740A6
:100D20000B19E542B1CFCA855685EF0060532A8D75
:100D30002DCD0C6C6686EFD02FD58357040193F729
:100D4000F7B793E707082318F40033059D01BB07A5
:100D50009941233CA40108E023202403CE8C5CC4E9
:100D60004E8DFDB36286E685EFD08FD65444186071
:100D70009B070C00BB868641629754C418E085B57A
:100D80004A865685EF00D0442A8D61F10C6C568559
:100D9000EFF01FA583170401314723A0EA0093F762
:100DA000F7F769B51B0B1900FDBB31478317040129
:100DB00023A0EA00A5BD7D55A1B5000000000000FC
:100DC0000000000000000000000000000000000023
:100DD0005D7126FC4EF452F056EC5AE85EE486E46F
:100DE000A2E04AF82E8B130A05528144930B800B24
:100DF0008549FD5A1300000083278A0003340A0145
:100E0000635CF002FD378BB7077C850722890B995D
:100E100077210100130000008357040163FAF900F1
:100E200083172401228563855701029BC98C812485
:100E30001304840BE31289FE033A0A00E31E0AFA44
:100E4000A66006644279A279027AE26A426BA26BDA
:100E50002685E274616182801300000013000000A7
:100E60005D7126FC4EF452F056EC5AE85EE462E006
:100E700086E4A2E04AF82A8C2E8B130A055281449C
:100E8000930B800B8549FD5A83278A0003340A019E
:100E9000635DF002FD378BB7077C850722890B99CC
:100EA00077210100130000008357040163FBF90060
:100EB00083172401A285628563855701029BC98C33
:100EC00081241304840BE31189FE033A0A00E31D15
:100ED0000AFAA66006644279A279027AE26A426B53
:100EE000A26B026C2685E2746161828000000000C2
:100EF00000000000000000000000000000000000F2
:100F000015C64111973501009385C54F328522E002
:100F100006E43284EFD08FD405E1172501001305D4
:100F200065E2A26002644101828001001725010090
:100F3000130545E18280010097250100938585E036
:100F40002285EFD0AFD171D9972501009385059BFC
:100F50002285EFD0AFD071D10145E1B71300000079
:100F600017450100034585D782801300000001006A
:100F700095C5411122E02E84228597350100938585
:100F8000654806E4EFD08FCD05E117250100130574
:100F900065DBA26002644101828001001725010027
:100FA000130545DA8280010097250100938585D9D4
:100FB0002285EFD0AFCA71D997250100938505949A
:100FC0002285EFD0AFC971D10145E1B70000000023
:100FD0000000000000000000000000000000000011
:100FE00013050510828013000000130000000100AB
:100FF00017450100130585C8828013000000010019
:1010000017450100130585C782800000000000001D
:1010100000000000000000000000000000000000D0
:101020008280010013000000130000001300000084
:101030008280010013000000130000001300000074
:101040008280010013000000130000001300000064
:101050008280010013000000130000001300000054
:101060008280010013000000130000001300000044
:101070008280010013000000130000001300000034
:1010800005458280130000001300000013000000DB
:1010900005458280130000001300000013000000CB
:1010A0008280010013000000130000001300000004
:1010B000828000000000000000000000000000002E
:1010C00083D7050193F6270081CA938775079CE1B2
:1010D0009CED85479CD18280357122E92E848395D1
:1010E000250126E506ED4AE1CEFCD2F8AA8463C9C3
:1010F00005063000EF20507D634205063249BD678A
:10110000930900403379F90089673309F94085670D
:1011100013391900138A0780CE852685EF00401405
:101120008317040121CD17F7FFFF1307A7FFB8ECC2
:1011300093E707082318F40008E008EC23203403A1
:1011400063120906B3E747012318F400EA604A6412
:10115000AA640A69E679467A0D61828083570401A0
:1011600093F7070801499DCB93090004CE85268596
:10117000EF00000F83170401014A55F513F707200C
:1011800071F7F19B93E72700130774072318F40006
:10119000854718E018EC1CD055BF010093090040AA
:1011A000014A9DBF831524012685EF20707009E553
:1011B0008317040141BF010083570401F19B93E7AA
:1011C00017008BA7073CBDBF1300000013000000F1
:1011D000757122E12E8483952501A6FCCAF806E5E7
:1011E000B284368963CC05023000EF20F06D63478E
:1011F0000502B2473D67AA60F98F0967998F0A64B3
:1012000093B717002320F900930700409CE0056581
:10121000E6744679130505804961828083170401CD
:101220002320090093F7070881CFAA600A64930777
:1012300000049CE04679E674014549618280010022
:10124000AA600A64930700409CE04679E674014571
:1012500049618280000000000000000000000000E2
:101260001D71A6E44EFC86ECA2E8CAE052F856F4E2
:101270005AF05EEC62E866E4938475019307E0023D
:10128000AA8963E797049307000263EBB71EEF0098
:10129000207293040002930700051146174A0100CB
:1012A000130A4AA9D2978067138707FF630CE41ECD
:1012B0001C64146C1068F19BA297986714EE90EA76
:1012C0001367170098E74E85EF00806F41046DAA01
:1012D000B7070080C19893C7F7FF63E3971A63E1EC
:1012E000B41AEF00E06C9307701F63FF973C93D72D
:1012F0009400638F072A11476368F73493D764001B
:101300001B8697039B1616001B8587038E06174ABC
:101310000100130A2AA2D2968066C1166388861835
:101320001C64FD45F19B3387974063CEE5000100C7
:101330006350072C006C638B86161C64F19B33870B
:101340009740E3D7E5FE03340A021748010013086B
:10135000689F2A866314041783378A001B57264028
:101360008546B396E60063FCD71A03340A010339B5
:101370008400937AC9FF63E79A00B3879A407D4758
:10138000634AF724938B8104974C0100938C8C99CA
:1013900003B90B0003B70C00FD57330C5401269919
:1013A0006302F73C8567FD073E99FD773379F900C5
:1013B000CA854E85EF209051FD572A8B630CF5327C
:1013C0006368853303A78B00BB07270123A4FB00B9
:1013D000BE86630FAC4003B70C00FD576306F742AF
:1013E000B3078B41B59F23A4FB00137CFB0063096B
:1013F0000C38330B8B418567410BC107B38787419D
:10140000B30C2B01338997410B39092CCA854E85C2
:10141000EF20D04BFD57630EF542330565411B07A6
:1014200009002A9983A78B0023386A0113691900E0
:10143000B99F23A4FB0023342B01630A443D7D465E
:101440006379563D146413878AFE419B858AD98E41
:1014500014E4A545B306E4008CE68CEA6362E6403A
:1014600003398B005A8403B70B036374F70023B866
:10147000FB0203B78B036373F72823BCFB02BDACED
:10148000B14723A0F9000144E66022854664A664C2
:101490000669E279427AA27A027BE26B426CA26C24
:1014A00025618280806F0926E39487E003340A0275
:1014B0001748010013080889E30004EB1C64FD468B
:1014C000F19B3387974063CBE61C23340A03233018
:1014D0000A036357070E1307F01F636FF7108D831E
:1014E0001B87170003358A001B1717008B45EA6618
:1014F0009BD627408547B397D7008B16EA06C98F3E
:10150000C11614EC0CE82334FA000B54EA6680EDA3
:101510001B5726408546B396E600E3E8D7E433F749
:10152000F60001EF8606719A33F7F600112611E7EF
:10153000860633F7F600112665DF7D459B08160009
:101540009B9818008B181A07C118C685328303B9F7
:1015500085016399250119AA63520712033989018C
:101560006386251183378900F19B33879740E355C4
:10157000E5FE833689010336090193E5140023341F
:10158000B90014EE90EACA9423349A0223309A02E6
:101590009366170023BC040123B8040194E40B579D
:1015A000F9604E85EF00C04113040901F1BD01004F
:1015B00093060040130600041305F00389BB0100E5
:1015C000A29798674E8541041367170098E7EF00CC
:1015D000203F5DBD13E7140018E4A29423389A005D
:1015E00093E717009CE44E85EF00803D410469BD00
:1015F000146C1068D1B1010013D79700914663FFB6
:10160000E60CD14663E3E61A9B05C7059B951500DA
:101610009B06B7058E050B47BA60D295C115638648
:10162000E5140100130000001467F19A63F5D70078
:10163000186BE39BE5FE0C6F83378A000CEC18E80F
:1016400080E900EFF1B5010051476377F70C13070C
:101650004005636AF71693D7C4001B86F7069B16EE
:1016600016001B85E7068E065DB101000523937702
:101670003300C105E39D07EC6DA80100CA97986788
:101680004A84833689010B46846A1367170098E7FA
:1016900014EE90EA4E85EF00A032FDB393E61400FD
:1016A00014E4A29423349A0223309A02936617001A
:1016B00023BC040123B8040194E40B57F4604E8565
:1016C000EF0000304104C9B313D634009B07160065
:1016D0009B97170001268E07D1B6010013D767002C
:1016E0009B0597039B9515009B0687038E0525B7E1
:1016F0006309440F03340A01033984001379C9FFD5
:10170000B3079940636599007D47E345F7EC4E8543
:10171000EF00002B01448DBB1B86C7059B161600EE
:101720001B85B7058E06E5B68BC708797D36639FA6
:10173000171793773600EDFB03378A0093C7F6FF40
:10174000F98F2334FA008606E3E1D7C2E38F06C09F
:1017500033F7F60011E7860633F7F600112365DF4D
:101760001A86E9BB13090902A1B103358A009BD689
:1017700026408547B397D700C98F2334FA007DBD33
:10178000330C2B01330C80410B3C0C2CE2854E8535
:10179000EF20D013FD570147E306F5C83305654137
:1017A0001B070C0033098501B5B99306400563E6B4
:1017B000E60613D7C7009B05F7069B9515009B0609
:1017C000E7068E0589BD130740156366F70693D7B4
:1017D000F4001B8687079B1616001B8577078E066D
:1017E0003DB683A78B00BB86270123A4DB00E5B6AB
:1017F0000B370C2CE31107BE03340A015699136909
:1018000019002334240185B123B06C01F9BE5A8438
:1018100099B985472334FB00DDBD9306401563ED80
:10182000E60413D7F7009B0587079B9515009B06D9
:1018300077078E05CDB313074055636DF70493D733
:1018400024011B86D7079B1616001B85C7078E062B
:101850007DBC411C33898C01330969410147D9B6EC
:10186000930504014E85EFE0BFF703340A0183A717
:101870008B0003398400C5BE9306405563E3E6023E
:1018800013D727019B05D7079B9515009B06C70714
:101890008E0551B39306007F1306F0071305E0078A
:1018A000BDB49305007F9306E007B5B383378A0084
:1018B00059BD000000000000000000000000000012
:1018C0009737010083B7073A8287130000000100B1
:1018D00041117C008B95B74001CE91CE8347060025
:1018E0009CC1034506003335A00041018280010000
:1018F0000145410182807955CDBF00000000000004
:101900009377750093F6F50FD9CF9307F6FF21C6AD
:10191000034705006302D7047D5601A8FD17638CB9
:10192000C702034705006309D70205051377750051
:1019300075F71D476364F70299CF03470500630DF0
:10194000D700AA9731A00100034705006306D7001E
:101950000505E39BA7FE01458280010093F5F50F85
:1019600013978500D98D139705014D8F9738010086
:1019700083B8C8A4173801000338C8A49315070218
:10198000D98D1D431300000018612D8F33061701F8
:101990001347F7FF718F3377070145F3E1172105EF
:1019A000E364F3FE51BFB28769B700000000000096
:1019B000138501026FF0CFEB13000000130000004D
:1019C000138501026FF0CFEE000000000000000060
:1019D0005D714AF886E4A2E026FC4EF452F056EC23
:1019E0005AE85EE462E03289638005162E8A2A8B0B
:1019F000EFF01FFC83378AFF130479011307E0021D
:101A0000930A0AFF93F4C7FF6370870C37070080BF
:101A100041981347F7FF636D870A636B240BB38903
:101A20009A0063D3840E973B0100938BAB3083B64F
:101A30000B0103B78900638B36159376E7FFCE96CB
:101A40009466858A6398060E719BB386E40063D31F
:101A5000860A858B8DE3033C0AFF338C8A418337EA
:101A60008C00F19B3E97B30B970063D58B28B38B0B
:101A7000F40063DD8B20CA855A85EFF06FFE2A895A
:101A800021C183378AFF130705FFF99BD697638728
:101A9000E71E138684FF9307800463E9C7241307B6
:101AA000700283360A006367C718AA87528794E3D7
:101AB000146794E7186B98EBD2855A85EFE05FD2F4
:101AC0005A85EFF0FFEF09A813040002E37924F52B
:101AD000B1472320FB000149A6600664E274A279A5
:101AE000027AE26A426BA26B026C4A8542796161BA
:101AF0008280010083B7890103B70901B684B389E5
:101B0000DA001CEF98EB010083B78A00338784402A
:101B1000FD46858B63E8E604C58F23B4FA0083B7DE
:101B2000890093E7170023B4F9005A85EFF05FE9C5
:101B300052895DB7858BA1F3033C0AFF338C8A4140
:101B400083378C00F19B25B70664A660E274427966
:101B5000A279027AE26A426BA26B026CB285616181
:101B60006FF00FF0C18F23B4FA00B3858A001367BA
:101B7000170098E583B78900C1055A8593E71700D8
:101B800023B4F900EFE0DFC54DB70100719BB386C8
:101B9000E4001306040263DFC60A858BE39D07ECAD
:101BA000033C0AFF338C8A4183378C00F19B3E97BC
:101BB000B3099700E3CDC9EA628983378C010B47EB
:101BC000896A138684FF930680041CEF98EB63E810
:101BD000C6209305700203370A00CA8763F1C50265
:101BE0002338EC0003378A0093077003233CEC0092
:101BF00063ECC71E03370A0193070C02410A98E3FE
:101C000003378A0098E703370A0198EB33078C0003
:101C1000B387894023B8EB0093E717001CE78337AD
:101C20008C005A85858B5D8C23348C00EFF05FD956
:101C300065B5010014E183368A001307700314E5CB
:101C4000636CC71283360A0113070A019307050163
:101C5000B9BD0100A29AB387864023B85B0193E720
:101C6000170023B4FA0083378AFF5A855289858B7F
:101C70005D8C233C8AFEEFF0BFD4B9BD833785FF6E
:101C8000F19BBE94B3899A0041B501006289833704
:101C90008C010B47896A138684FF930680041CEF2E
:101CA00098EBB3097C0163E1C60C9305700203371E
:101CB0000A00CA8763F1C5022338EC0003378A00A3
:101CC00093077003233CEC0063E7C70C03370A015A
:101CD00093070C02410A98E303378A00DE84E28A04
:101CE00098E703370A014A8A98EB39BDD285EFC0DD
:101CF0002FDED9B383B7890103B70901628913863F
:101D000084FF1CEF98EB0B47896A83378C0193069D
:101D10008004B3097C011CEF98EB63E7C6049306CB
:101D2000700203370A00CA87E3F7C6FA2338EC00CB
:101D300003378A0093077003233CEC0003370A0142
:101D4000E3F8C7F82330EC0203378A0193078004D5
:101D50002334EC0203370A02630BF60493070C03E7
:101D6000130A0A028DBF0100D2854A85EFC04FD603
:101D70004A8ADE84E28A49BB03370A0118E903373D
:101D80008A0118ED83360A026300F60413070A027B
:101D90009307050229BB83370A012330FC028337EE
:101DA0008A012334FC0203370A02E319D6FA2338E6
:101DB000EC0203378A0293070C04130A0A03233C3C
:101DC000EC0203370A0001BF14F183368A021307BD
:101DD0000A039307050314F583360A03C9B9D285AC
:101DE0004A85EFC0EFCE1DB583370A012330FC02D0
:101DF00083378A012334FC0203370A026307D600C3
:101E000093070C03130A0A02DDBB2338EC020337E5
:101E10008A0293070C04130A0A03233CEC020337DB
:101E20000A00F1BB000000000000000000000000FC
:101E30000337855101C70145828001004111930597
:101E4000001022E006E42A84EFF08FC1233CA45066
:101E500009CD9307051001000B508578E31EF5FEB0
:101E60000145A2600264410182807D55DDBF010011
:101E70007D476361B70283368551011122E806EC84
:101E80002E8489CE0BC586660BD68666E2604264D8
:101E900005618280594718C17D55828093050010E5
:101EA00032E42AE0EFF0CFBB8267AA8623BCA750BA
:101EB00009CD2266AA871307051001001300000050
:101EC0000BD08778E31EF7FE75BF7D55C1B70100C3
:101ED000FD4763E9B70603378551011122E826E47F
:101EE00006ECAA842E840DC78B47B76695C385463A
:101EF0006384D704FD566389D7022E850B50B766DD
:101F00008297E2604264A26401450561828001001B
:101F10002685EF20A01922864264E260AA852685E4
:101F2000A26405616F200019E2604264D9471CC1B8
:101F3000A264054505618280E2604264A2640145B5
:101F400005618280D9471CC17D5582801300000045
:101F5000FD4763E3B70803378551011122E826E402
:101F600006ECAA842E840DCF8B4787660B17870655
:101F700095C3FD56638ED70485466385D7042285B5
:101F80002330070082970145E2604264A264056144
:101F900082800100E2604264A2640545056182809E
:101FA00093050010EFF0CFAB23BCA4502A871DC1CE
:101FB000AA879306051001000BD08778E39ED7FE11
:101FC00065B70100E2604264A2640D45056182804C
:101FD00009455DBF7D554DBF7D55828013000000D2
:101FE000011122E806ECFD47172401000334844266
:101FF00063E2A706033784512A861DC38B47A76671
:1020000085C385466382D704FD566387D7020B508C
:10201000A76682970145E260426405618280010003
:10202000228532E4EF208008AA8522854264226658
:10203000E26005616F200008D947E2601CC042647D
:102040000545056182800100E26042640145056149
:1020500082800100D9471CC07D5575BF1300000068
:1020600001114AE006EC22E826E4FD4717290100A9
:102070000339493A63E2A70283368951AE842A8440
:1020800095C60BC586668BD48666E2604264A26400
:102090000269056182800100E2604264D947232021
:1020A000F900A26402697D550561828093050010E4
:1020B0004A85EFF0EF9A233CA950AA8619C9AA874E
:1020C00013070510130000000BD08778E31EF7FEFE
:1020D0004DBF7D555DBF13000000130000000100DF
:1020E000411122E0172401000334C43206E483378F
:1020F000845199C70145A2600264410182800100B8
:10210000930500102285EFF0AF95233CA45011C930
:1021100093070510130000000B508578E31EF5FEB1
:10212000D1BF7D55C9BF130000001300000001009E
:10213000011126E406EC22E8FD479724010083B450
:10214000642D63EDA7062A8403B5845105CD8B4722
:1021500085660B1585068DC37D57638FE70405479C
:102160006386E70423300500228582970145E260FB
:102170004264A26405618280E2604264A264054513
:1021800005618280930500102685EFF06F8D23BCDA
:10219000A4500DC5AA871307051001001300000005
:1021A0000BD08778E39EE7FE5DB70100E2604264F2
:1021B000A2640D4505618280094555BF7D5545BF27
:1021C000000000000000000000000000000000000F
:1021D000411122E02E848395250106E4EF10506E14
:1021E000634A05005C68A260AA975CE8026441014A
:1021F00082800100835704017D777D17F98FA260EB
:102200002318F400026441018280130000000100E1
:10221000014582801300000013000000130000003D
:1022200083970501797122F026EC4AE84EE406F422
:1022300013F707102E84AA84839525013289B68965
:1022400015E37D777D17F98F2318F4000274A270CF
:10225000CE864A86A26942692685E26445616F108E
:102260007066010089460146EF101065831704016E
:1022700083152401F9B713000000130000000100CA
:10228000411122E02E848395250106E4EF10D062EF
:10229000FD57630DF500835704010567A260D98FD0
:1022A00048E82318F4000264410182808357040146
:1022B0007D777D17F98FA2602318F4000264410135
:1022C00082800100130000001300000013000000D2
:1022D000839525016F10905E000000000000000053
:1022E000797122F026EC4AE806F44EE42A89AE849D
:1022F000328419C13C49E9CF031704011454937780
:10230000870054C48B36073CB1CB1C6CA1CB09664B
:1023100093F9F40FF18ECE84B5C218601450BB0748
:10232000F74063DDD70654441306170010E0FD366E
:1023300054C423003701185085276303F7088357D7
:102340000401858B81C7A947638CF406A2700274CF
:102350004269A2692685E26445618280A2854A8538
:10236000EFD01F9B3DE103170401096693F9F40FB9
:102370008B36073CF18E1C6CCE84C5F28326040B91
:10238000518F79767D16F18E2318E400186023288A
:10239000D40A1450BB07F740E3C7D7F8A2854A8593
:1023A000EFD01FC61DE1186054448547130617007F
:1023B000FD3610E054C4230037011850E311F7F83C
:1023C000A2854A85EFD0DFC351D1FD5441B701004A
:1023D000EFD01FE315B71300000013000000010049
:1023E000AA87172501000335E5022E86BE85CDBDDF
:1023F000797122F026EC06F49737010083B707863F
:102400002A84B68491C98297FD57630DF500A270A6
:102410000274E2644561828001468A858297FD5795
:10242000E317F5FE23A004009307A008A2701CC0C8
:102430000274E26445618280130000001300000012
:10244000797122F026EC06F417240100033484FC91
:102450009737010083B78780B284B28611CD2E866C
:10246000AA8522858297FD57630FF500A27002743A
:10247000E26445618280010001468A852285829757
:10248000FD57E315F5FE23A004009307A008A270F2
:102490001CC00274E26445618280000000000000FC
:1024A0009727010083B7877B828713000000010014
:1024B0009B07060085C11307F00F6367F7002380B1
:1024C000C5000545828001009307A0081CC17D5509
:1024D00082800100014582800000000000000000B1
:1024E000011106EC22E826E44AE0C5C5AA842E8440
:1024F00019C13C49C5CB8327040B03170401858B05
:10250000B5CB41CBA2852685EFD09F953C682A8923
:1025100091C70C78268582976340050A834704019A
:102520000BB777FC45E32C6C91C99307440763858F
:10253000F5002685EFE0CFAA233C04042C7C91C54E
:102540002685EFE0EFA9233C0406EFD07FF1832737
:10255000040B23180400858BD1C74870EFE05FAFF0
:10256000EFD01FF1E2604264A2644A85026905610E
:10257000828001001377072051F74870EFE05FAFCA
:1025800083170401C1F30329040B137919006300B5
:102590000904E26042640149A2644A850269056156
:1025A00082800100EFD0DFC58327040B03170401ED
:1025B000858BA1FBC1B70100834704017D590BB78F
:1025C00077FC35D30C6C2685EFE08FA1A9BF48704E
:1025D000EFE01FAEE2604264A2644A8502690561D1
:1025E000828001004870EFE0BFAC85BF130000009F
:1025F000AA85172501000335E5E1DDB500000000DF
:1026000000000000000000000000000000000000CA
:1026100001A0000000000000000000000CEA973755
:1026200001009387A7120BD6A77682809737010007
:102630009387C7110BD0A7768280011126E493847B
:1026400081089C4006EC852722E89CC07324203436
:102650009D471374F43F6306F400EF00E04D1B0444
:102660000500973701009387670E0BC5877601C574
:102670001C6999CB82979C402285FD374264E260B9
:102680009CC0A26405616DA91C6DF5D70C712285F3
:102690008297D5B71385010017D60100130686B1BE
:1026A000098E81456FB0DFD0411106E4EF20B00FF5
:1026B000A26041016FA0901582805D7186E4EFF009
:1026C000BFFFF32700307370043081450A85EF00A7
:1026D000007381450A85EF00A07D0A85EF00E07850
:1026E00001A037857D01130505848280411106E430
:1026F000A1677390073BF327003A93F707F093E73E
:1027000087087390073AEFF0FFF80F00F00F0B0007
:1027100080010F1000000F0020020B0000010F00CD
:10272000F00F0B0080010F1000000F0020020F00BF
:10273000F00F0B0080010F1000000F0020020B00B3
:1027400020000F00F00F0B0080010F1000000F00A1
:1027500020020F00F00F0B0080010F1000000F008F
:1027600020020B002000F327107C8BB7077C93E737
:10277000E71F7390177C0F00F00F0B0080010F1004
:1027800000000F0020020F00F00F0B0080010F105F
:1027900000000F0020020B000001F327107C8BB714
:1027A000077C93E717007390177C0F00F00F0B0066
:1027B00080010F1000000F002002B70720700547AE
:1027C00023AEE7FEB706207081471307F03FDCC257
:1027D0008527E39EE7FE8147B70500707D46130716
:1027E000F03F8B96F504D0C28527E39CE7FE814736
:1027F000B706007013070002138607400BD0C644CB
:102800008527E39BE7FEB707207023A00700F32787
:1028100040300567130787888127D98F8BB7077CDE
:1028200073904730A2604101CDA00B35053C97075E
:1028300001009387A7DFAA8693F5F50F986319E344
:102840007D55828003D8A7006316D80003C897007F
:102850006304B800C107DDB765D618E283C78700F7
:102860002315A6002304F600A304B60001458280C8
:10287000411106E422E0732410C0EFF09FE69307B5
:10288000007D3B55F5020B35057CF32710C063FA3C
:102890008700B307F440E3EAA7FEA26002644101A7
:1028A0008280818FCDBF374700745C431843821705
:1028B0000B37077CBA979386F7FF75570B35057C66
:1028C000636BD7003E9513570542B7470074D8C3D2
:1028D000012588C38280F32710C0EDB79757010008
:1028E00083A747E6852717570100232DF7E4828049
:1028F000411106E4EFF09FFEEFF0BFDE93074006C4
:102900003B55F502A260410179BF41119757010083
:1029100023AA07E222E09D4717540100130404E3B1
:1029200006E42304F400F32710C0175701002333F3
:10293000F7E47D47B707007098D32286970500001B
:10294000938545FB1D45EFF07FCDB747007423A26B
:10295000070023A00700EFF0DFD8930740063B55A0
:10296000F502EFF05FF403458400EF008017A260EA
:102970000264014541018280411122E017540100A7
:102980001304C4DC0345840006E4EF00001803458B
:1029900084000264A260410151B9011106EC22E8F1
:1029A00026E4732410C09754010083B4A4DCEFF034
:1029B0005FD3058C9307803E3304F4020B35057C0E
:1029C000E2603355A4024264A2649757010023AD2C
:1029D000A7D601250561828011E18280011106ECF4
:1029E0007D352AE4EFF0DFE8EFF09FE822656DF92E
:1029F000E26005618280797122F029443B548502AE
:102A000026ECE1644EE406F44AE8FD599B84046A2E
:102A10007D3463193401A2700274E2644269A269D0
:102A200045618280732910C0EFF0BFCB3B55950202
:102A30000B35057CF32710C063F82701B307F94075
:102A4000E3EAA7FE7D34F1B7B3872741D5BF79719B
:102A500026EC06F422F04AE84EE452E0AA84F3257C
:102A6000203417050100130565E793F5F53FEF20C6
:102A7000A0372945EF2000360144170A0100130A48
:102A80006AE78D497D490BC684669B051400528513
:102A9000EF20803593773400639537012945EF2087
:102AA00060330504E31124FF2945EF20A032EC7CBC
:102AB00017050100130505E5EF20003383B5041069
